{
  "contractName": "DSAuth",
  "abi": [
    {
      "constant": true,
      "inputs": [],
      "name": "owner",
      "outputs": [
        {
          "name": "",
          "type": "address"
        }
      ],
      "payable": false,
      "stateMutability": "view",
      "type": "function"
    },
    {
      "constant": true,
      "inputs": [],
      "name": "authority",
      "outputs": [
        {
          "name": "",
          "type": "address"
        }
      ],
      "payable": false,
      "stateMutability": "view",
      "type": "function"
    },
    {
      "inputs": [],
      "payable": false,
      "stateMutability": "nonpayable",
      "type": "constructor"
    },
    {
      "anonymous": false,
      "inputs": [
        {
          "indexed": true,
          "name": "authority",
          "type": "address"
        }
      ],
      "name": "LogSetAuthority",
      "type": "event"
    },
    {
      "anonymous": false,
      "inputs": [
        {
          "indexed": true,
          "name": "owner",
          "type": "address"
        }
      ],
      "name": "LogSetOwner",
      "type": "event"
    },
    {
      "constant": false,
      "inputs": [
        {
          "name": "owner_",
          "type": "address"
        }
      ],
      "name": "setOwner",
      "outputs": [],
      "payable": false,
      "stateMutability": "nonpayable",
      "type": "function"
    },
    {
      "constant": false,
      "inputs": [
        {
          "name": "authority_",
          "type": "address"
        }
      ],
      "name": "setAuthority",
      "outputs": [],
      "payable": false,
      "stateMutability": "nonpayable",
      "type": "function"
    }
  ],
  "bytecode": "0x608060405234801561001057600080fd5b50600180546001600160a01b031916339081179091556040517fce241d7ca1f669fee44b6fc00b8eba2df3bb514eed0f6f668f8f89096e81ed9490600090a26103718061005e6000396000f3fe608060405234801561001057600080fd5b506004361061004c5760003560e01c806313af4035146100515780637a9e5e4b146100795780638da5cb5b1461009f578063bf7e214f146100c3575b600080fd5b6100776004803603602081101561006757600080fd5b50356001600160a01b03166100cb565b005b6100776004803603602081101561008f57600080fd5b50356001600160a01b0316610185565b6100a761023b565b604080516001600160a01b039092168252519081900360200190f35b6100a761024a565b6100e1336000356001600160e01b031916610259565b6101355760408051600160e51b62461bcd02815260206004820152601460248201527f64732d617574682d756e617574686f72697a6564000000000000000000000000604482015290519081900360640190fd5b600180546001600160a01b0319166001600160a01b0383811691909117918290556040519116907fce241d7ca1f669fee44b6fc00b8eba2df3bb514eed0f6f668f8f89096e81ed9490600090a250565b61019b336000356001600160e01b031916610259565b6101ef5760408051600160e51b62461bcd02815260206004820152601460248201527f64732d617574682d756e617574686f72697a6564000000000000000000000000604482015290519081900360640190fd5b600080546001600160a01b0319166001600160a01b03838116919091178083556040519116917f1abebea81bfa2637f28358c371278fb15ede7ea8dd28d2e03b112ff6d936ada491a250565b6001546001600160a01b031681565b6000546001600160a01b031681565b60006001600160a01b0383163014156102745750600161033f565b6001546001600160a01b03848116911614156102925750600161033f565b6000546001600160a01b03166102aa5750600061033f565b60005460408051600160e01b63b70096130281526001600160a01b0386811660048301523060248301526001600160e01b0319861660448301529151919092169163b7009613916064808301926020929190829003018186803b15801561031057600080fd5b505afa158015610324573d6000803e3d6000fd5b505050506040513d602081101561033a57600080fd5b505190505b9291505056fea165627a7a723058209c48823c8fa34a44025dfc550cd4eff9e5b0e24d98f4a7e81f4c8532790ff1d90029",
  "source": "// This program is free software: you can redistribute it and/or modify\n// it under the terms of the GNU General Public License as published by\n// the Free Software Foundation, either version 3 of the License, or\n// (at your option) any later version.\n\n// This program is distributed in the hope that it will be useful,\n// but WITHOUT ANY WARRANTY; without even the implied warranty of\n// MERCHANTABILITY or FITNESS FOR A PARTICULAR PURPOSE.  See the\n// GNU General Public License for more details.\n\n// You should have received a copy of the GNU General Public License\n// along with this program.  If not, see <http://www.gnu.org/licenses/>.\n\npragma solidity >=0.4.23;\n\ncontract DSAuthority {\n    function canCall(\n        address src, address dst, bytes4 sig\n    ) public view returns (bool);\n}\n\ncontract DSAuthEvents {\n    event LogSetAuthority (address indexed authority);\n    event LogSetOwner     (address indexed owner);\n}\n\ncontract DSAuth is DSAuthEvents {\n    DSAuthority  public  authority;\n    address      public  owner;\n\n    constructor() public {\n        owner = msg.sender;\n        emit LogSetOwner(msg.sender);\n    }\n\n    function setOwner(address owner_)\n        public\n        auth\n    {\n        owner = owner_;\n        emit LogSetOwner(owner);\n    }\n\n    function setAuthority(DSAuthority authority_)\n        public\n        auth\n    {\n        authority = authority_;\n        emit LogSetAuthority(address(authority));\n    }\n\n    modifier auth {\n        require(isAuthorized(msg.sender, msg.sig), \"ds-auth-unauthorized\");\n        _;\n    }\n\n    function isAuthorized(address src, bytes4 sig) internal view returns (bool) {\n        if (src == address(this)) {\n            return true;\n        } else if (src == owner) {\n            return true;\n        } else if (authority == DSAuthority(0)) {\n            return false;\n        } else {\n            return authority.canCall(src, address(this), sig);\n        }\n    }\n}\n",
  "sourcePath": "/Users/Elena/colonyToken/lib/dappsys/auth.sol",
  "compiler": {
    "name": "solc",
    "version": "0.5.6+commit.b259423e.Linux.g++"
  },
  "schemaVersion": "3.0.5",
  "updatedAt": "2019-04-01T12:28:54.209Z",
  "devdoc": {
    "methods": {}
  },
  "userdoc": {
    "methods": {}
  }
}