{
  "contractName": "DSStop",
  "abi": [
    {
      "constant": false,
      "inputs": [
        {
          "name": "owner_",
          "type": "address"
        }
      ],
      "name": "setOwner",
      "outputs": [],
      "payable": false,
      "stateMutability": "nonpayable",
      "type": "function"
    },
    {
      "constant": true,
      "inputs": [],
      "name": "stopped",
      "outputs": [
        {
          "name": "",
          "type": "bool"
        }
      ],
      "payable": false,
      "stateMutability": "view",
      "type": "function"
    },
    {
      "constant": false,
      "inputs": [
        {
          "name": "authority_",
          "type": "address"
        }
      ],
      "name": "setAuthority",
      "outputs": [],
      "payable": false,
      "stateMutability": "nonpayable",
      "type": "function"
    },
    {
      "constant": true,
      "inputs": [],
      "name": "owner",
      "outputs": [
        {
          "name": "",
          "type": "address"
        }
      ],
      "payable": false,
      "stateMutability": "view",
      "type": "function"
    },
    {
      "constant": true,
      "inputs": [],
      "name": "authority",
      "outputs": [
        {
          "name": "",
          "type": "address"
        }
      ],
      "payable": false,
      "stateMutability": "view",
      "type": "function"
    },
    {
      "anonymous": false,
      "inputs": [
        {
          "indexed": true,
          "name": "authority",
          "type": "address"
        }
      ],
      "name": "LogSetAuthority",
      "type": "event"
    },
    {
      "anonymous": false,
      "inputs": [
        {
          "indexed": true,
          "name": "owner",
          "type": "address"
        }
      ],
      "name": "LogSetOwner",
      "type": "event"
    },
    {
      "anonymous": true,
      "inputs": [
        {
          "indexed": true,
          "name": "sig",
          "type": "bytes4"
        },
        {
          "indexed": true,
          "name": "guy",
          "type": "address"
        },
        {
          "indexed": true,
          "name": "foo",
          "type": "bytes32"
        },
        {
          "indexed": true,
          "name": "bar",
          "type": "bytes32"
        },
        {
          "indexed": false,
          "name": "wad",
          "type": "uint256"
        },
        {
          "indexed": false,
          "name": "fax",
          "type": "bytes"
        }
      ],
      "name": "LogNote",
      "type": "event"
    },
    {
      "constant": false,
      "inputs": [],
      "name": "stop",
      "outputs": [],
      "payable": false,
      "stateMutability": "nonpayable",
      "type": "function"
    },
    {
      "constant": false,
      "inputs": [],
      "name": "start",
      "outputs": [],
      "payable": false,
      "stateMutability": "nonpayable",
      "type": "function"
    }
  ],
  "bytecode": "0x60806040819052600180546001600160a01b03191633908117909155907fce241d7ca1f669fee44b6fc00b8eba2df3bb514eed0f6f668f8f89096e81ed9490600090a2610592806100516000396000f3fe608060405234801561001057600080fd5b506004361061007d5760003560e01c80637a9e5e4b1161005b5780637a9e5e4b146100ce5780638da5cb5b146100f4578063be9a655514610118578063bf7e214f146101205761007d565b806307da68f51461008257806313af40351461008c57806375f12b21146100b2575b600080fd5b61008a610128565b005b61008a600480360360208110156100a257600080fd5b50356001600160a01b031661020b565b6100ba6102bf565b604080519115158252519081900360200190f35b61008a600480360360208110156100e457600080fd5b50356001600160a01b03166102cf565b6100fc61037f565b604080516001600160a01b039092168252519081900360200190f35b61008a61038e565b6100fc61046b565b61013e336000356001600160e01b03191661047a565b61018c5760408051600160e51b62461bcd0281526020600482015260146024820152600160621b73191ccb585d5d1a0b5d5b985d5d1a1bdc9a5e995902604482015290519081900360640190fd5b604080513480825260208201838152369383018490526004359360243593849286923392600080356001600160e01b03191693889391929060608201848480828437600083820152604051601f909101601f1916909201829003965090945050505050a4505060018054600160a01b60ff021916600160a01b17905550565b610221336000356001600160e01b03191661047a565b61026f5760408051600160e51b62461bcd0281526020600482015260146024820152600160621b73191ccb585d5d1a0b5d5b985d5d1a1bdc9a5e995902604482015290519081900360640190fd5b600180546001600160a01b0319166001600160a01b0383811691909117918290556040519116907fce241d7ca1f669fee44b6fc00b8eba2df3bb514eed0f6f668f8f89096e81ed9490600090a250565b600154600160a01b900460ff1681565b6102e5336000356001600160e01b03191661047a565b6103335760408051600160e51b62461bcd0281526020600482015260146024820152600160621b73191ccb585d5d1a0b5d5b985d5d1a1bdc9a5e995902604482015290519081900360640190fd5b600080546001600160a01b0319166001600160a01b03838116919091178083556040519116917f1abebea81bfa2637f28358c371278fb15ede7ea8dd28d2e03b112ff6d936ada491a250565b6001546001600160a01b031681565b6103a4336000356001600160e01b03191661047a565b6103f25760408051600160e51b62461bcd0281526020600482015260146024820152600160621b73191ccb585d5d1a0b5d5b985d5d1a1bdc9a5e995902604482015290519081900360640190fd5b604080513480825260208201838152369383018490526004359360243593849286923392600080356001600160e01b03191693889391929060608201848480828437600083820152604051601f909101601f1916909201829003965090945050505050a4505060018054600160a01b60ff021916905550565b6000546001600160a01b031681565b60006001600160a01b03831630141561049557506001610560565b6001546001600160a01b03848116911614156104b357506001610560565b6000546001600160a01b03166104cb57506000610560565b60005460408051600160e01b63b70096130281526001600160a01b0386811660048301523060248301526001600160e01b0319861660448301529151919092169163b7009613916064808301926020929190829003018186803b15801561053157600080fd5b505afa158015610545573d6000803e3d6000fd5b505050506040513d602081101561055b57600080fd5b505190505b9291505056fea165627a7a72305820d3e8b5a1f0303e51242f7e3df8693e50c57c60919ad99cb3ee373fb6e24cee080029",
  "source": "/// stop.sol -- mixin for enable/disable functionality\n\n// Copyright (C) 2017  DappHub, LLC\n\n// This program is free software: you can redistribute it and/or modify\n// it under the terms of the GNU General Public License as published by\n// the Free Software Foundation, either version 3 of the License, or\n// (at your option) any later version.\n\n// This program is distributed in the hope that it will be useful,\n// but WITHOUT ANY WARRANTY; without even the implied warranty of\n// MERCHANTABILITY or FITNESS FOR A PARTICULAR PURPOSE.  See the\n// GNU General Public License for more details.\n\n// You should have received a copy of the GNU General Public License\n// along with this program.  If not, see <http://www.gnu.org/licenses/>.\n\npragma solidity >=0.4.23;\n\nimport \"./auth.sol\";\nimport \"./note.sol\";\n\ncontract DSStop is DSNote, DSAuth {\n    bool public stopped;\n\n    modifier stoppable {\n        require(!stopped, \"ds-stop-is-stopped\");\n        _;\n    }\n    function stop() public auth note {\n        stopped = true;\n    }\n    function start() public auth note {\n        stopped = false;\n    }\n\n}\n",
  "sourcePath": "/Users/Elena/colonyToken/lib/dappsys/stop.sol",
  "compiler": {
    "name": "solc",
    "version": "0.5.6+commit.b259423e.Linux.g++"
  },
  "schemaVersion": "3.0.5",
  "updatedAt": "2019-03-26T16:01:19.185Z",
  "devdoc": {
    "methods": {}
  },
  "userdoc": {
    "methods": {}
  }
}