{
  "contractName": "DSToken",
  "abi": [
    {
      "constant": true,
      "inputs": [],
      "name": "name",
      "outputs": [
        {
          "name": "",
          "type": "bytes32"
        }
      ],
      "payable": false,
      "stateMutability": "view",
      "type": "function"
    },
    {
      "constant": false,
      "inputs": [],
      "name": "stop",
      "outputs": [],
      "payable": false,
      "stateMutability": "nonpayable",
      "type": "function"
    },
    {
      "constant": false,
      "inputs": [
        {
          "name": "owner_",
          "type": "address"
        }
      ],
      "name": "setOwner",
      "outputs": [],
      "payable": false,
      "stateMutability": "nonpayable",
      "type": "function"
    },
    {
      "constant": true,
      "inputs": [],
      "name": "totalSupply",
      "outputs": [
        {
          "name": "",
          "type": "uint256"
        }
      ],
      "payable": false,
      "stateMutability": "view",
      "type": "function"
    },
    {
      "constant": true,
      "inputs": [],
      "name": "decimals",
      "outputs": [
        {
          "name": "",
          "type": "uint256"
        }
      ],
      "payable": false,
      "stateMutability": "view",
      "type": "function"
    },
    {
      "constant": true,
      "inputs": [
        {
          "name": "src",
          "type": "address"
        }
      ],
      "name": "balanceOf",
      "outputs": [
        {
          "name": "",
          "type": "uint256"
        }
      ],
      "payable": false,
      "stateMutability": "view",
      "type": "function"
    },
    {
      "constant": true,
      "inputs": [],
      "name": "stopped",
      "outputs": [
        {
          "name": "",
          "type": "bool"
        }
      ],
      "payable": false,
      "stateMutability": "view",
      "type": "function"
    },
    {
      "constant": false,
      "inputs": [
        {
          "name": "authority_",
          "type": "address"
        }
      ],
      "name": "setAuthority",
      "outputs": [],
      "payable": false,
      "stateMutability": "nonpayable",
      "type": "function"
    },
    {
      "constant": true,
      "inputs": [],
      "name": "owner",
      "outputs": [
        {
          "name": "",
          "type": "address"
        }
      ],
      "payable": false,
      "stateMutability": "view",
      "type": "function"
    },
    {
      "constant": true,
      "inputs": [],
      "name": "symbol",
      "outputs": [
        {
          "name": "",
          "type": "bytes32"
        }
      ],
      "payable": false,
      "stateMutability": "view",
      "type": "function"
    },
    {
      "constant": false,
      "inputs": [
        {
          "name": "dst",
          "type": "address"
        },
        {
          "name": "wad",
          "type": "uint256"
        }
      ],
      "name": "transfer",
      "outputs": [
        {
          "name": "",
          "type": "bool"
        }
      ],
      "payable": false,
      "stateMutability": "nonpayable",
      "type": "function"
    },
    {
      "constant": false,
      "inputs": [],
      "name": "start",
      "outputs": [],
      "payable": false,
      "stateMutability": "nonpayable",
      "type": "function"
    },
    {
      "constant": true,
      "inputs": [],
      "name": "authority",
      "outputs": [
        {
          "name": "",
          "type": "address"
        }
      ],
      "payable": false,
      "stateMutability": "view",
      "type": "function"
    },
    {
      "constant": true,
      "inputs": [
        {
          "name": "src",
          "type": "address"
        },
        {
          "name": "guy",
          "type": "address"
        }
      ],
      "name": "allowance",
      "outputs": [
        {
          "name": "",
          "type": "uint256"
        }
      ],
      "payable": false,
      "stateMutability": "view",
      "type": "function"
    },
    {
      "inputs": [
        {
          "name": "symbol_",
          "type": "bytes32"
        }
      ],
      "payable": false,
      "stateMutability": "nonpayable",
      "type": "constructor"
    },
    {
      "anonymous": false,
      "inputs": [
        {
          "indexed": true,
          "name": "guy",
          "type": "address"
        },
        {
          "indexed": false,
          "name": "wad",
          "type": "uint256"
        }
      ],
      "name": "Mint",
      "type": "event"
    },
    {
      "anonymous": false,
      "inputs": [
        {
          "indexed": true,
          "name": "guy",
          "type": "address"
        },
        {
          "indexed": false,
          "name": "wad",
          "type": "uint256"
        }
      ],
      "name": "Burn",
      "type": "event"
    },
    {
      "anonymous": false,
      "inputs": [
        {
          "indexed": true,
          "name": "authority",
          "type": "address"
        }
      ],
      "name": "LogSetAuthority",
      "type": "event"
    },
    {
      "anonymous": false,
      "inputs": [
        {
          "indexed": true,
          "name": "owner",
          "type": "address"
        }
      ],
      "name": "LogSetOwner",
      "type": "event"
    },
    {
      "anonymous": true,
      "inputs": [
        {
          "indexed": true,
          "name": "sig",
          "type": "bytes4"
        },
        {
          "indexed": true,
          "name": "guy",
          "type": "address"
        },
        {
          "indexed": true,
          "name": "foo",
          "type": "bytes32"
        },
        {
          "indexed": true,
          "name": "bar",
          "type": "bytes32"
        },
        {
          "indexed": false,
          "name": "wad",
          "type": "uint256"
        },
        {
          "indexed": false,
          "name": "fax",
          "type": "bytes"
        }
      ],
      "name": "LogNote",
      "type": "event"
    },
    {
      "anonymous": false,
      "inputs": [
        {
          "indexed": true,
          "name": "src",
          "type": "address"
        },
        {
          "indexed": true,
          "name": "guy",
          "type": "address"
        },
        {
          "indexed": false,
          "name": "wad",
          "type": "uint256"
        }
      ],
      "name": "Approval",
      "type": "event"
    },
    {
      "anonymous": false,
      "inputs": [
        {
          "indexed": true,
          "name": "src",
          "type": "address"
        },
        {
          "indexed": true,
          "name": "dst",
          "type": "address"
        },
        {
          "indexed": false,
          "name": "wad",
          "type": "uint256"
        }
      ],
      "name": "Transfer",
      "type": "event"
    },
    {
      "constant": false,
      "inputs": [
        {
          "name": "guy",
          "type": "address"
        },
        {
          "name": "wad",
          "type": "uint256"
        }
      ],
      "name": "approve",
      "outputs": [
        {
          "name": "",
          "type": "bool"
        }
      ],
      "payable": false,
      "stateMutability": "nonpayable",
      "type": "function"
    },
    {
      "constant": false,
      "inputs": [
        {
          "name": "guy",
          "type": "address"
        }
      ],
      "name": "approve",
      "outputs": [
        {
          "name": "",
          "type": "bool"
        }
      ],
      "payable": false,
      "stateMutability": "nonpayable",
      "type": "function"
    },
    {
      "constant": false,
      "inputs": [
        {
          "name": "src",
          "type": "address"
        },
        {
          "name": "dst",
          "type": "address"
        },
        {
          "name": "wad",
          "type": "uint256"
        }
      ],
      "name": "transferFrom",
      "outputs": [
        {
          "name": "",
          "type": "bool"
        }
      ],
      "payable": false,
      "stateMutability": "nonpayable",
      "type": "function"
    },
    {
      "constant": false,
      "inputs": [
        {
          "name": "dst",
          "type": "address"
        },
        {
          "name": "wad",
          "type": "uint256"
        }
      ],
      "name": "push",
      "outputs": [],
      "payable": false,
      "stateMutability": "nonpayable",
      "type": "function"
    },
    {
      "constant": false,
      "inputs": [
        {
          "name": "src",
          "type": "address"
        },
        {
          "name": "wad",
          "type": "uint256"
        }
      ],
      "name": "pull",
      "outputs": [],
      "payable": false,
      "stateMutability": "nonpayable",
      "type": "function"
    },
    {
      "constant": false,
      "inputs": [
        {
          "name": "src",
          "type": "address"
        },
        {
          "name": "dst",
          "type": "address"
        },
        {
          "name": "wad",
          "type": "uint256"
        }
      ],
      "name": "move",
      "outputs": [],
      "payable": false,
      "stateMutability": "nonpayable",
      "type": "function"
    },
    {
      "constant": false,
      "inputs": [
        {
          "name": "wad",
          "type": "uint256"
        }
      ],
      "name": "mint",
      "outputs": [],
      "payable": false,
      "stateMutability": "nonpayable",
      "type": "function"
    },
    {
      "constant": false,
      "inputs": [
        {
          "name": "guy",
          "type": "address"
        },
        {
          "name": "wad",
          "type": "uint256"
        }
      ],
      "name": "mint",
      "outputs": [],
      "payable": false,
      "stateMutability": "nonpayable",
      "type": "function"
    },
    {
      "constant": false,
      "inputs": [
        {
          "name": "wad",
          "type": "uint256"
        }
      ],
      "name": "burn",
      "outputs": [],
      "payable": false,
      "stateMutability": "nonpayable",
      "type": "function"
    },
    {
      "constant": false,
      "inputs": [
        {
          "name": "guy",
          "type": "address"
        },
        {
          "name": "wad",
          "type": "uint256"
        }
      ],
      "name": "burn",
      "outputs": [],
      "payable": false,
      "stateMutability": "nonpayable",
      "type": "function"
    },
    {
      "constant": false,
      "inputs": [
        {
          "name": "name_",
          "type": "bytes32"
        }
      ],
      "name": "setName",
      "outputs": [],
      "payable": false,
      "stateMutability": "nonpayable",
      "type": "function"
    }
  ],
  "bytecode": "0x60806040526012600655600060075534801561001a57600080fd5b506040516020806113228339810180604052602081101561003a57600080fd5b505133600081815260016020526040808220829055818055600480546001600160a01b03191684179055517fce241d7ca1f669fee44b6fc00b8eba2df3bb514eed0f6f668f8f89096e81ed949190a26005556112878061009b6000396000f3fe608060405234801561001057600080fd5b50600436106101735760003560e01c80637a9e5e4b116100de578063b753a98c11610097578063bf7e214f11610071578063bf7e214f1461040d578063daea85c514610415578063dd62ed3e1461043b578063f2d5d56b1461046957610173565b8063b753a98c146103a3578063bb35783b146103cf578063be9a65551461040557610173565b80637a9e5e4b146102dc5780638da5cb5b1461030257806395d89b41146103265780639dc29fac1461032e578063a0712d681461035a578063a9059cbb1461037757610173565b8063313ce56711610130578063313ce5671461024057806340c10f191461024857806342966c68146102745780635ac801fe1461029157806370a08231146102ae57806375f12b21146102d457610173565b806306fdde031461017857806307da68f514610192578063095ea7b31461019c57806313af4035146101dc57806318160ddd1461020257806323b872dd1461020a575b600080fd5b610180610495565b60408051918252519081900360200190f35b61019a61049b565b005b6101c8600480360360408110156101b257600080fd5b506001600160a01b038135169060200135610572565b604080519115158252519081900360200190f35b61019a600480360360208110156101f257600080fd5b50356001600160a01b03166105e2565b61018061068a565b6101c86004803603606081101561022057600080fd5b506001600160a01b03813581169160208101359091169060400135610690565b610180610921565b61019a6004803603604081101561025e57600080fd5b506001600160a01b038135169060200135610927565b61019a6004803603602081101561028a57600080fd5b5035610a69565b61019a600480360360208110156102a757600080fd5b5035610a76565b610180600480360360208110156102c457600080fd5b50356001600160a01b0316610ad3565b6101c8610aee565b61019a600480360360208110156102f257600080fd5b50356001600160a01b0316610afe565b61030a610ba6565b604080516001600160a01b039092168252519081900360200190f35b610180610bb5565b61019a6004803603604081101561034457600080fd5b506001600160a01b038135169060200135610bbb565b61019a6004803603602081101561037057600080fd5b5035610e7e565b6101c86004803603604081101561038d57600080fd5b506001600160a01b038135169060200135610e88565b61019a600480360360408110156103b957600080fd5b506001600160a01b038135169060200135610e95565b61019a600480360360608110156103e557600080fd5b506001600160a01b03813581169160208101359091169060400135610ea5565b61019a610eb6565b61030a610f87565b6101c86004803603602081101561042b57600080fd5b50356001600160a01b0316610f96565b6101806004803603604081101561045157600080fd5b506001600160a01b0381358116916020013516610fff565b61019a6004803603604081101561047f57600080fd5b506001600160a01b03813516906020013561102a565b60075481565b6104b1336000356001600160e01b031916611035565b6104f35760408051600160e51b62461bcd028152602060048201526014602482015260008051602061123c833981519152604482015290519081900360640190fd5b604080513480825260208201838152369383018490526004359360243593849286923392600080356001600160e01b03191693889391929060608201848480828437600083820152604051601f909101601f1916909201829003965090945050505050a4505060048054600160a01b60ff021916600160a01b17905550565b600454600090600160a01b900460ff16156105cf5760408051600160e51b62461bcd0281526020600482015260126024820152600160721b71191ccb5cdd1bdc0b5a5ccb5cdd1bdc1c195902604482015290519081900360640190fd5b6105d9838361111f565b90505b92915050565b6105f8336000356001600160e01b031916611035565b61063a5760408051600160e51b62461bcd028152602060048201526014602482015260008051602061123c833981519152604482015290519081900360640190fd5b600480546001600160a01b0319166001600160a01b0383811691909117918290556040519116907fce241d7ca1f669fee44b6fc00b8eba2df3bb514eed0f6f668f8f89096e81ed9490600090a250565b60005490565b600454600090600160a01b900460ff16156106ed5760408051600160e51b62461bcd0281526020600482015260126024820152600160721b71191ccb5cdd1bdc0b5a5ccb5cdd1bdc1c195902604482015290519081900360640190fd5b6001600160a01b038416331480159061072b57506001600160a01b038416600090815260026020908152604080832033845290915290205460001914155b156107fe576001600160a01b03841660009081526002602090815260408083203384529091529020548211156107ab5760408051600160e51b62461bcd02815260206004820152601e60248201527f64732d746f6b656e2d696e73756666696369656e742d617070726f76616c0000604482015290519081900360640190fd5b6001600160a01b03841660009081526002602090815260408083203384529091529020546107d99083611185565b6001600160a01b03851660009081526002602090815260408083203384529091529020555b6001600160a01b03841660009081526001602052604090205482111561086e5760408051600160e51b62461bcd02815260206004820152601d60248201527f64732d746f6b656e2d696e73756666696369656e742d62616c616e6365000000604482015290519081900360640190fd5b6001600160a01b0384166000908152600160205260409020546108919083611185565b6001600160a01b0380861660009081526001602052604080822093909355908516815220546108c090836111e0565b6001600160a01b0380851660008181526001602090815260409182902094909455805186815290519193928816927fddf252ad1be2c89b69c2b068fc378daa952ba7f163c4a11628f55a4df523b3ef92918290030190a35060019392505050565b60065481565b61093d336000356001600160e01b031916611035565b61097f5760408051600160e51b62461bcd028152602060048201526014602482015260008051602061123c833981519152604482015290519081900360640190fd5b600454600160a01b900460ff16156109d95760408051600160e51b62461bcd0281526020600482015260126024820152600160721b71191ccb5cdd1bdc0b5a5ccb5cdd1bdc1c195902604482015290519081900360640190fd5b6001600160a01b0382166000908152600160205260409020546109fc90826111e0565b6001600160a01b03831660009081526001602052604081209190915554610a2390826111e0565b6000556040805182815290516001600160a01b038416917f0f6798a560793a54c3bcfe86a93cde1e73087d944c0ea20544137d4121396885919081900360200190a25050565b610a733382610bbb565b50565b610a8c336000356001600160e01b031916611035565b610ace5760408051600160e51b62461bcd028152602060048201526014602482015260008051602061123c833981519152604482015290519081900360640190fd5b600755565b6001600160a01b031660009081526001602052604090205490565b600454600160a01b900460ff1681565b610b14336000356001600160e01b031916611035565b610b565760408051600160e51b62461bcd028152602060048201526014602482015260008051602061123c833981519152604482015290519081900360640190fd5b600380546001600160a01b0319166001600160a01b0383811691909117918290556040519116907f1abebea81bfa2637f28358c371278fb15ede7ea8dd28d2e03b112ff6d936ada490600090a250565b6004546001600160a01b031681565b60055481565b610bd1336000356001600160e01b031916611035565b610c135760408051600160e51b62461bcd028152602060048201526014602482015260008051602061123c833981519152604482015290519081900360640190fd5b600454600160a01b900460ff1615610c6d5760408051600160e51b62461bcd0281526020600482015260126024820152600160721b71191ccb5cdd1bdc0b5a5ccb5cdd1bdc1c195902604482015290519081900360640190fd5b6001600160a01b0382163314801590610cab57506001600160a01b038216600090815260026020908152604080832033845290915290205460001914155b15610d7e576001600160a01b0382166000908152600260209081526040808320338452909152902054811115610d2b5760408051600160e51b62461bcd02815260206004820152601e60248201527f64732d746f6b656e2d696e73756666696369656e742d617070726f76616c0000604482015290519081900360640190fd5b6001600160a01b0382166000908152600260209081526040808320338452909152902054610d599082611185565b6001600160a01b03831660009081526002602090815260408083203384529091529020555b6001600160a01b038216600090815260016020526040902054811115610dee5760408051600160e51b62461bcd02815260206004820152601d60248201527f64732d746f6b656e2d696e73756666696369656e742d62616c616e6365000000604482015290519081900360640190fd5b6001600160a01b038216600090815260016020526040902054610e119082611185565b6001600160a01b03831660009081526001602052604081209190915554610e389082611185565b6000556040805182815290516001600160a01b038416917fcc16f5dbb4873280815c1ee09dbd06736cffcc184412cf7a71a0fdb75d397ca5919081900360200190a25050565b610a733382610927565b60006105d9338484610690565b610ea0338383610690565b505050565b610eb0838383610690565b50505050565b610ecc336000356001600160e01b031916611035565b610f0e5760408051600160e51b62461bcd028152602060048201526014602482015260008051602061123c833981519152604482015290519081900360640190fd5b604080513480825260208201838152369383018490526004359360243593849286923392600080356001600160e01b03191693889391929060608201848480828437600083820152604051601f909101601f1916909201829003965090945050505050a4505060048054600160a01b60ff021916905550565b6003546001600160a01b031681565b600454600090600160a01b900460ff1615610ff35760408051600160e51b62461bcd0281526020600482015260126024820152600160721b71191ccb5cdd1bdc0b5a5ccb5cdd1bdc1c195902604482015290519081900360640190fd5b6105dc8260001961111f565b6001600160a01b03918216600090815260026020908152604080832093909416825291909152205490565b610ea0823383610690565b60006001600160a01b038316301415611050575060016105dc565b6004546001600160a01b038481169116141561106e575060016105dc565b6003546001600160a01b0316611086575060006105dc565b60035460408051600160e01b63b70096130281526001600160a01b0386811660048301523060248301526001600160e01b0319861660448301529151919092169163b7009613916064808301926020929190829003018186803b1580156110ec57600080fd5b505afa158015611100573d6000803e3d6000fd5b505050506040513d602081101561111657600080fd5b505190506105dc565b3360008181526002602090815260408083206001600160a01b038716808552908352818420869055815186815291519394909390927f8c5be1e5ebec7d5bd14f71427d1e84f3dd0314c0f7b2291e5b200ac8c7c3b925928290030190a350600192915050565b808203828111156105dc5760408051600160e51b62461bcd02815260206004820152601560248201527f64732d6d6174682d7375622d756e646572666c6f770000000000000000000000604482015290519081900360640190fd5b808201828110156105dc5760408051600160e51b62461bcd02815260206004820152601460248201527f64732d6d6174682d6164642d6f766572666c6f77000000000000000000000000604482015290519081900360640190fdfe64732d617574682d756e617574686f72697a6564000000000000000000000000a165627a7a72305820702ee7a639a1e1b83793a9ef00c5e98618cf95a4f9588866849ed76cd4d752aa0029",
  "source": "/// token.sol -- ERC20 implementation with minting and burning\n\n// Copyright (C) 2015, 2016, 2017  DappHub, LLC\n\n// This program is free software: you can redistribute it and/or modify\n// it under the terms of the GNU General Public License as published by\n// the Free Software Foundation, either version 3 of the License, or\n// (at your option) any later version.\n\n// This program is distributed in the hope that it will be useful,\n// but WITHOUT ANY WARRANTY; without even the implied warranty of\n// MERCHANTABILITY or FITNESS FOR A PARTICULAR PURPOSE.  See the\n// GNU General Public License for more details.\n\n// You should have received a copy of the GNU General Public License\n// along with this program.  If not, see <http://www.gnu.org/licenses/>.\n\npragma solidity >=0.4.23;\n\nimport \"./stop.sol\";\n\nimport \"./base.sol\";\n\ncontract DSToken is DSTokenBase(0), DSStop {\n\n    bytes32  public  symbol;\n    uint256  public  decimals = 18; // standard token precision. override to customize\n\n    constructor(bytes32 symbol_) public {\n        symbol = symbol_;\n    }\n\n    event Mint(address indexed guy, uint wad);\n    event Burn(address indexed guy, uint wad);\n\n    function approve(address guy) public stoppable returns (bool) {\n        return super.approve(guy, uint(-1));\n    }\n\n    function approve(address guy, uint wad) public stoppable returns (bool) {\n        return super.approve(guy, wad);\n    }\n\n    function transferFrom(address src, address dst, uint wad)\n        public\n        stoppable\n        returns (bool)\n    {\n        if (src != msg.sender && _approvals[src][msg.sender] != uint(-1)) {\n            require(_approvals[src][msg.sender] >= wad, \"ds-token-insufficient-approval\");\n            _approvals[src][msg.sender] = sub(_approvals[src][msg.sender], wad);\n        }\n\n        require(_balances[src] >= wad, \"ds-token-insufficient-balance\");\n        _balances[src] = sub(_balances[src], wad);\n        _balances[dst] = add(_balances[dst], wad);\n\n        emit Transfer(src, dst, wad);\n\n        return true;\n    }\n\n    function push(address dst, uint wad) public {\n        transferFrom(msg.sender, dst, wad);\n    }\n    function pull(address src, uint wad) public {\n        transferFrom(src, msg.sender, wad);\n    }\n    function move(address src, address dst, uint wad) public {\n        transferFrom(src, dst, wad);\n    }\n\n    function mint(uint wad) public {\n        mint(msg.sender, wad);\n    }\n    function burn(uint wad) public {\n        burn(msg.sender, wad);\n    }\n    function mint(address guy, uint wad) public auth stoppable {\n        _balances[guy] = add(_balances[guy], wad);\n        _supply = add(_supply, wad);\n        emit Mint(guy, wad);\n    }\n    function burn(address guy, uint wad) public auth stoppable {\n        if (guy != msg.sender && _approvals[guy][msg.sender] != uint(-1)) {\n            require(_approvals[guy][msg.sender] >= wad, \"ds-token-insufficient-approval\");\n            _approvals[guy][msg.sender] = sub(_approvals[guy][msg.sender], wad);\n        }\n\n        require(_balances[guy] >= wad, \"ds-token-insufficient-balance\");\n        _balances[guy] = sub(_balances[guy], wad);\n        _supply = sub(_supply, wad);\n        emit Burn(guy, wad);\n    }\n\n    // Optional token name\n    bytes32   public  name = \"\";\n\n    function setName(bytes32 name_) public auth {\n        name = name_;\n    }\n}\n",
  "sourcePath": "/Users/Elena/colonyToken/lib/dappsys/token.sol",
  "compiler": {
    "name": "solc",
    "version": "0.5.6+commit.b259423e.Linux.g++"
  },
  "schemaVersion": "3.0.5",
  "updatedAt": "2019-03-26T16:01:19.240Z",
  "devdoc": {
    "methods": {}
  },
  "userdoc": {
    "methods": {}
  }
}