{
  "contractName": "Token",
  "abi": [
    {
      "constant": true,
      "inputs": [],
      "name": "name",
      "outputs": [
        {
          "name": "",
          "type": "bytes32"
        }
      ],
      "payable": false,
      "stateMutability": "view",
      "type": "function",
      "signature": "0x06fdde03"
    },
    {
      "constant": false,
      "inputs": [],
      "name": "stop",
      "outputs": [],
      "payable": false,
      "stateMutability": "nonpayable",
      "type": "function",
      "signature": "0x07da68f5"
    },
    {
      "constant": false,
      "inputs": [
        {
          "name": "guy",
          "type": "address"
        },
        {
          "name": "wad",
          "type": "uint256"
        }
      ],
      "name": "approve",
      "outputs": [
        {
          "name": "",
          "type": "bool"
        }
      ],
      "payable": false,
      "stateMutability": "nonpayable",
      "type": "function",
      "signature": "0x095ea7b3"
    },
    {
      "constant": false,
      "inputs": [
        {
          "name": "owner_",
          "type": "address"
        }
      ],
      "name": "setOwner",
      "outputs": [],
      "payable": false,
      "stateMutability": "nonpayable",
      "type": "function",
      "signature": "0x13af4035"
    },
    {
      "constant": true,
      "inputs": [],
      "name": "totalSupply",
      "outputs": [
        {
          "name": "",
          "type": "uint256"
        }
      ],
      "payable": false,
      "stateMutability": "view",
      "type": "function",
      "signature": "0x18160ddd"
    },
    {
      "constant": true,
      "inputs": [],
      "name": "decimals",
      "outputs": [
        {
          "name": "",
          "type": "uint256"
        }
      ],
      "payable": false,
      "stateMutability": "view",
      "type": "function",
      "signature": "0x313ce567"
    },
    {
      "constant": false,
      "inputs": [
        {
          "name": "wad",
          "type": "uint256"
        }
      ],
      "name": "burn",
      "outputs": [],
      "payable": false,
      "stateMutability": "nonpayable",
      "type": "function",
      "signature": "0x42966c68"
    },
    {
      "constant": false,
      "inputs": [
        {
          "name": "name_",
          "type": "bytes32"
        }
      ],
      "name": "setName",
      "outputs": [],
      "payable": false,
      "stateMutability": "nonpayable",
      "type": "function",
      "signature": "0x5ac801fe"
    },
    {
      "constant": true,
      "inputs": [
        {
          "name": "src",
          "type": "address"
        }
      ],
      "name": "balanceOf",
      "outputs": [
        {
          "name": "",
          "type": "uint256"
        }
      ],
      "payable": false,
      "stateMutability": "view",
      "type": "function",
      "signature": "0x70a08231"
    },
    {
      "constant": true,
      "inputs": [],
      "name": "stopped",
      "outputs": [
        {
          "name": "",
          "type": "bool"
        }
      ],
      "payable": false,
      "stateMutability": "view",
      "type": "function",
      "signature": "0x75f12b21"
    },
    {
      "constant": false,
      "inputs": [
        {
          "name": "authority_",
          "type": "address"
        }
      ],
      "name": "setAuthority",
      "outputs": [],
      "payable": false,
      "stateMutability": "nonpayable",
      "type": "function",
      "signature": "0x7a9e5e4b"
    },
    {
      "constant": true,
      "inputs": [],
      "name": "owner",
      "outputs": [
        {
          "name": "",
          "type": "address"
        }
      ],
      "payable": false,
      "stateMutability": "view",
      "type": "function",
      "signature": "0x8da5cb5b"
    },
    {
      "constant": true,
      "inputs": [],
      "name": "symbol",
      "outputs": [
        {
          "name": "",
          "type": "bytes32"
        }
      ],
      "payable": false,
      "stateMutability": "view",
      "type": "function",
      "signature": "0x95d89b41"
    },
    {
      "constant": false,
      "inputs": [
        {
          "name": "guy",
          "type": "address"
        },
        {
          "name": "wad",
          "type": "uint256"
        }
      ],
      "name": "burn",
      "outputs": [],
      "payable": false,
      "stateMutability": "nonpayable",
      "type": "function",
      "signature": "0x9dc29fac"
    },
    {
      "constant": false,
      "inputs": [
        {
          "name": "dst",
          "type": "address"
        },
        {
          "name": "wad",
          "type": "uint256"
        }
      ],
      "name": "transfer",
      "outputs": [
        {
          "name": "",
          "type": "bool"
        }
      ],
      "payable": false,
      "stateMutability": "nonpayable",
      "type": "function",
      "signature": "0xa9059cbb"
    },
    {
      "constant": false,
      "inputs": [
        {
          "name": "dst",
          "type": "address"
        },
        {
          "name": "wad",
          "type": "uint256"
        }
      ],
      "name": "push",
      "outputs": [],
      "payable": false,
      "stateMutability": "nonpayable",
      "type": "function",
      "signature": "0xb753a98c"
    },
    {
      "constant": false,
      "inputs": [
        {
          "name": "src",
          "type": "address"
        },
        {
          "name": "dst",
          "type": "address"
        },
        {
          "name": "wad",
          "type": "uint256"
        }
      ],
      "name": "move",
      "outputs": [],
      "payable": false,
      "stateMutability": "nonpayable",
      "type": "function",
      "signature": "0xbb35783b"
    },
    {
      "constant": false,
      "inputs": [],
      "name": "start",
      "outputs": [],
      "payable": false,
      "stateMutability": "nonpayable",
      "type": "function",
      "signature": "0xbe9a6555"
    },
    {
      "constant": true,
      "inputs": [],
      "name": "authority",
      "outputs": [
        {
          "name": "",
          "type": "address"
        }
      ],
      "payable": false,
      "stateMutability": "view",
      "type": "function",
      "signature": "0xbf7e214f"
    },
    {
      "constant": true,
      "inputs": [],
      "name": "locked",
      "outputs": [
        {
          "name": "",
          "type": "bool"
        }
      ],
      "payable": false,
      "stateMutability": "view",
      "type": "function",
      "signature": "0xcf309012"
    },
    {
      "constant": false,
      "inputs": [
        {
          "name": "guy",
          "type": "address"
        }
      ],
      "name": "approve",
      "outputs": [
        {
          "name": "",
          "type": "bool"
        }
      ],
      "payable": false,
      "stateMutability": "nonpayable",
      "type": "function",
      "signature": "0xdaea85c5"
    },
    {
      "constant": true,
      "inputs": [
        {
          "name": "src",
          "type": "address"
        },
        {
          "name": "guy",
          "type": "address"
        }
      ],
      "name": "allowance",
      "outputs": [
        {
          "name": "",
          "type": "uint256"
        }
      ],
      "payable": false,
      "stateMutability": "view",
      "type": "function",
      "signature": "0xdd62ed3e"
    },
    {
      "constant": false,
      "inputs": [
        {
          "name": "src",
          "type": "address"
        },
        {
          "name": "wad",
          "type": "uint256"
        }
      ],
      "name": "pull",
      "outputs": [],
      "payable": false,
      "stateMutability": "nonpayable",
      "type": "function",
      "signature": "0xf2d5d56b"
    },
    {
      "inputs": [
        {
          "name": "_name",
          "type": "bytes32"
        },
        {
          "name": "_symbol",
          "type": "bytes32"
        },
        {
          "name": "_decimals",
          "type": "uint8"
        }
      ],
      "payable": false,
      "stateMutability": "nonpayable",
      "type": "constructor",
      "signature": "constructor"
    },
    {
      "anonymous": false,
      "inputs": [
        {
          "indexed": true,
          "name": "guy",
          "type": "address"
        },
        {
          "indexed": false,
          "name": "wad",
          "type": "uint256"
        }
      ],
      "name": "Mint",
      "type": "event",
      "signature": "0x0f6798a560793a54c3bcfe86a93cde1e73087d944c0ea20544137d4121396885"
    },
    {
      "anonymous": false,
      "inputs": [
        {
          "indexed": true,
          "name": "guy",
          "type": "address"
        },
        {
          "indexed": false,
          "name": "wad",
          "type": "uint256"
        }
      ],
      "name": "Burn",
      "type": "event",
      "signature": "0xcc16f5dbb4873280815c1ee09dbd06736cffcc184412cf7a71a0fdb75d397ca5"
    },
    {
      "anonymous": false,
      "inputs": [
        {
          "indexed": true,
          "name": "authority",
          "type": "address"
        }
      ],
      "name": "LogSetAuthority",
      "type": "event",
      "signature": "0x1abebea81bfa2637f28358c371278fb15ede7ea8dd28d2e03b112ff6d936ada4"
    },
    {
      "anonymous": false,
      "inputs": [
        {
          "indexed": true,
          "name": "owner",
          "type": "address"
        }
      ],
      "name": "LogSetOwner",
      "type": "event",
      "signature": "0xce241d7ca1f669fee44b6fc00b8eba2df3bb514eed0f6f668f8f89096e81ed94"
    },
    {
      "anonymous": true,
      "inputs": [
        {
          "indexed": true,
          "name": "sig",
          "type": "bytes4"
        },
        {
          "indexed": true,
          "name": "guy",
          "type": "address"
        },
        {
          "indexed": true,
          "name": "foo",
          "type": "bytes32"
        },
        {
          "indexed": true,
          "name": "bar",
          "type": "bytes32"
        },
        {
          "indexed": false,
          "name": "wad",
          "type": "uint256"
        },
        {
          "indexed": false,
          "name": "fax",
          "type": "bytes"
        }
      ],
      "name": "LogNote",
      "type": "event",
      "signature": "0x644843f351d3fba4abcd60109eaff9f54bac8fb8ccf0bab941009c21df21cf31"
    },
    {
      "anonymous": false,
      "inputs": [
        {
          "indexed": true,
          "name": "src",
          "type": "address"
        },
        {
          "indexed": true,
          "name": "guy",
          "type": "address"
        },
        {
          "indexed": false,
          "name": "wad",
          "type": "uint256"
        }
      ],
      "name": "Approval",
      "type": "event",
      "signature": "0x8c5be1e5ebec7d5bd14f71427d1e84f3dd0314c0f7b2291e5b200ac8c7c3b925"
    },
    {
      "anonymous": false,
      "inputs": [
        {
          "indexed": true,
          "name": "src",
          "type": "address"
        },
        {
          "indexed": true,
          "name": "dst",
          "type": "address"
        },
        {
          "indexed": false,
          "name": "wad",
          "type": "uint256"
        }
      ],
      "name": "Transfer",
      "type": "event",
      "signature": "0xddf252ad1be2c89b69c2b068fc378daa952ba7f163c4a11628f55a4df523b3ef"
    },
    {
      "constant": false,
      "inputs": [
        {
          "name": "src",
          "type": "address"
        },
        {
          "name": "dst",
          "type": "address"
        },
        {
          "name": "wad",
          "type": "uint256"
        }
      ],
      "name": "transferFrom",
      "outputs": [
        {
          "name": "",
          "type": "bool"
        }
      ],
      "payable": false,
      "stateMutability": "nonpayable",
      "type": "function",
      "signature": "0x23b872dd"
    },
    {
      "constant": false,
      "inputs": [
        {
          "name": "guy",
          "type": "address"
        },
        {
          "name": "wad",
          "type": "uint256"
        }
      ],
      "name": "mint",
      "outputs": [],
      "payable": false,
      "stateMutability": "nonpayable",
      "type": "function",
      "signature": "0x40c10f19"
    },
    {
      "constant": false,
      "inputs": [
        {
          "name": "wad",
          "type": "uint256"
        }
      ],
      "name": "mint",
      "outputs": [],
      "payable": false,
      "stateMutability": "nonpayable",
      "type": "function",
      "signature": "0xa0712d68"
    },
    {
      "constant": false,
      "inputs": [],
      "name": "unlock",
      "outputs": [],
      "payable": false,
      "stateMutability": "nonpayable",
      "type": "function",
      "signature": "0xa69df4b5"
    }
  ],
  "bytecode": "0x60806040526012600655600060075534801561001a57600080fd5b506040516060806114de8339810180604052606081101561003a57600080fd5b5080516020808301516040938401513360008181526001909452858420849055838055600480546001600160a01b0319168217905594519394919390928492917fce241d7ca1f669fee44b6fc00b8eba2df3bb514eed0f6f668f8f89096e81ed949190a26005556008805460ff191660011790556007929092555060ff16600655611414806100ca6000396000f3fe608060405234801561001057600080fd5b50600436106101a95760003560e01c80638da5cb5b116100f9578063bb35783b11610097578063cf30901211610071578063cf30901214610453578063daea85c51461045b578063dd62ed3e14610481578063f2d5d56b146104af576101a9565b8063bb35783b1461040d578063be9a655514610443578063bf7e214f1461044b576101a9565b8063a0712d68116100d3578063a0712d6814610390578063a69df4b5146103ad578063a9059cbb146103b5578063b753a98c146103e1576101a9565b80638da5cb5b1461033857806395d89b411461035c5780639dc29fac14610364576101a9565b8063313ce567116101665780635ac801fe116101405780635ac801fe146102c757806370a08231146102e457806375f12b211461030a5780637a9e5e4b14610312576101a9565b8063313ce5671461027657806340c10f191461027e57806342966c68146102aa576101a9565b806306fdde03146101ae57806307da68f5146101c8578063095ea7b3146101d257806313af40351461021257806318160ddd1461023857806323b872dd14610240575b600080fd5b6101b66104db565b60408051918252519081900360200190f35b6101d06104e1565b005b6101fe600480360360408110156101e857600080fd5b506001600160a01b0381351690602001356105b8565b604080519115158252519081900360200190f35b6101d06004803603602081101561022857600080fd5b50356001600160a01b0316610628565b6101b66106d0565b6101fe6004803603606081101561025657600080fd5b506001600160a01b038135811691602081013590911690604001356106d6565b6101b6610761565b6101d06004803603604081101561029457600080fd5b506001600160a01b038135169060200135610767565b6101d0600480360360208110156102c057600080fd5b50356107b6565b6101d0600480360360208110156102dd57600080fd5b50356107c3565b6101b6600480360360208110156102fa57600080fd5b50356001600160a01b0316610820565b6101fe61083b565b6101d06004803603602081101561032857600080fd5b50356001600160a01b031661084b565b6103406108f3565b604080516001600160a01b039092168252519081900360200190f35b6101b6610902565b6101d06004803603604081101561037a57600080fd5b506001600160a01b038135169060200135610908565b6101d0600480360360208110156103a657600080fd5b5035610bcb565b6101d0610bd5565b6101fe600480360360408110156103cb57600080fd5b506001600160a01b038135169060200135610c39565b6101d0600480360360408110156103f757600080fd5b506001600160a01b038135169060200135610c46565b6101d06004803603606081101561042357600080fd5b506001600160a01b03813581169160208101359091169060400135610c56565b6101d0610c67565b610340610d38565b6101fe610d47565b6101fe6004803603602081101561047157600080fd5b50356001600160a01b0316610d50565b6101b66004803603604081101561049757600080fd5b506001600160a01b0381358116916020013516610db9565b6101d0600480360360408110156104c557600080fd5b506001600160a01b038135169060200135610de4565b60075481565b6104f7336000356001600160e01b031916610def565b6105395760408051600160e51b62461bcd02815260206004820152601460248201526000805160206113c9833981519152604482015290519081900360640190fd5b604080513480825260208201838152369383018490526004359360243593849286923392600080356001600160e01b03191693889391929060608201848480828437600083820152604051601f909101601f1916909201829003965090945050505050a4505060048054600160a01b60ff021916600160a01b17905550565b600454600090600160a01b900460ff16156106155760408051600160e51b62461bcd0281526020600482015260126024820152600160721b71191ccb5cdd1bdc0b5a5ccb5cdd1bdc1c195902604482015290519081900360640190fd5b61061f8383610ed9565b90505b92915050565b61063e336000356001600160e01b031916610def565b6106805760408051600160e51b62461bcd02815260206004820152601460248201526000805160206113c9833981519152604482015290519081900360640190fd5b600480546001600160a01b0319166001600160a01b0383811691909117918290556040519116907fce241d7ca1f669fee44b6fc00b8eba2df3bb514eed0f6f668f8f89096e81ed9490600090a250565b60005490565b60085460009060ff161561074e576106fa336000356001600160e01b031916610def565b61074e5760408051600160e51b62461bcd02815260206004820152601960248201527f636f6c6f6e792d746f6b656e2d756e617574686f726973656400000000000000604482015290519081900360640190fd5b610759848484610f3f565b949350505050565b60065481565b61077182826111d0565b6040805182815290516001600160a01b038416916000917fddf252ad1be2c89b69c2b068fc378daa952ba7f163c4a11628f55a4df523b3ef9181900360200190a35050565b6107c03382610908565b50565b6107d9336000356001600160e01b031916610def565b61081b5760408051600160e51b62461bcd02815260206004820152601460248201526000805160206113c9833981519152604482015290519081900360640190fd5b600755565b6001600160a01b031660009081526001602052604090205490565b600454600160a01b900460ff1681565b610861336000356001600160e01b031916610def565b6108a35760408051600160e51b62461bcd02815260206004820152601460248201526000805160206113c9833981519152604482015290519081900360640190fd5b600380546001600160a01b0319166001600160a01b0383811691909117918290556040519116907f1abebea81bfa2637f28358c371278fb15ede7ea8dd28d2e03b112ff6d936ada490600090a250565b6004546001600160a01b031681565b60055481565b61091e336000356001600160e01b031916610def565b6109605760408051600160e51b62461bcd02815260206004820152601460248201526000805160206113c9833981519152604482015290519081900360640190fd5b600454600160a01b900460ff16156109ba5760408051600160e51b62461bcd0281526020600482015260126024820152600160721b71191ccb5cdd1bdc0b5a5ccb5cdd1bdc1c195902604482015290519081900360640190fd5b6001600160a01b03821633148015906109f857506001600160a01b038216600090815260026020908152604080832033845290915290205460001914155b15610acb576001600160a01b0382166000908152600260209081526040808320338452909152902054811115610a785760408051600160e51b62461bcd02815260206004820152601e60248201527f64732d746f6b656e2d696e73756666696369656e742d617070726f76616c0000604482015290519081900360640190fd5b6001600160a01b0382166000908152600260209081526040808320338452909152902054610aa69082611312565b6001600160a01b03831660009081526002602090815260408083203384529091529020555b6001600160a01b038216600090815260016020526040902054811115610b3b5760408051600160e51b62461bcd02815260206004820152601d60248201527f64732d746f6b656e2d696e73756666696369656e742d62616c616e6365000000604482015290519081900360640190fd5b6001600160a01b038216600090815260016020526040902054610b5e9082611312565b6001600160a01b03831660009081526001602052604081209190915554610b859082611312565b6000556040805182815290516001600160a01b038416917fcc16f5dbb4873280815c1ee09dbd06736cffcc184412cf7a71a0fdb75d397ca5919081900360200190a25050565b6107c03382610767565b610beb336000356001600160e01b031916610def565b610c2d5760408051600160e51b62461bcd02815260206004820152601460248201526000805160206113c9833981519152604482015290519081900360640190fd5b6008805460ff19169055565b600061061f3384846106d6565b610c513383836106d6565b505050565b610c618383836106d6565b50505050565b610c7d336000356001600160e01b031916610def565b610cbf5760408051600160e51b62461bcd02815260206004820152601460248201526000805160206113c9833981519152604482015290519081900360640190fd5b604080513480825260208201838152369383018490526004359360243593849286923392600080356001600160e01b03191693889391929060608201848480828437600083820152604051601f909101601f1916909201829003965090945050505050a4505060048054600160a01b60ff021916905550565b6003546001600160a01b031681565b60085460ff1681565b600454600090600160a01b900460ff1615610dad5760408051600160e51b62461bcd0281526020600482015260126024820152600160721b71191ccb5cdd1bdc0b5a5ccb5cdd1bdc1c195902604482015290519081900360640190fd5b61062282600019610ed9565b6001600160a01b03918216600090815260026020908152604080832093909416825291909152205490565b610c518233836106d6565b60006001600160a01b038316301415610e0a57506001610622565b6004546001600160a01b0384811691161415610e2857506001610622565b6003546001600160a01b0316610e4057506000610622565b60035460408051600160e01b63b70096130281526001600160a01b0386811660048301523060248301526001600160e01b0319861660448301529151919092169163b7009613916064808301926020929190829003018186803b158015610ea657600080fd5b505afa158015610eba573d6000803e3d6000fd5b505050506040513d6020811015610ed057600080fd5b50519050610622565b3360008181526002602090815260408083206001600160a01b038716808552908352818420869055815186815291519394909390927f8c5be1e5ebec7d5bd14f71427d1e84f3dd0314c0f7b2291e5b200ac8c7c3b925928290030190a350600192915050565b600454600090600160a01b900460ff1615610f9c5760408051600160e51b62461bcd0281526020600482015260126024820152600160721b71191ccb5cdd1bdc0b5a5ccb5cdd1bdc1c195902604482015290519081900360640190fd5b6001600160a01b0384163314801590610fda57506001600160a01b038416600090815260026020908152604080832033845290915290205460001914155b156110ad576001600160a01b038416600090815260026020908152604080832033845290915290205482111561105a5760408051600160e51b62461bcd02815260206004820152601e60248201527f64732d746f6b656e2d696e73756666696369656e742d617070726f76616c0000604482015290519081900360640190fd5b6001600160a01b03841660009081526002602090815260408083203384529091529020546110889083611312565b6001600160a01b03851660009081526002602090815260408083203384529091529020555b6001600160a01b03841660009081526001602052604090205482111561111d5760408051600160e51b62461bcd02815260206004820152601d60248201527f64732d746f6b656e2d696e73756666696369656e742d62616c616e6365000000604482015290519081900360640190fd5b6001600160a01b0384166000908152600160205260409020546111409083611312565b6001600160a01b03808616600090815260016020526040808220939093559085168152205461116f908361136d565b6001600160a01b0380851660008181526001602090815260409182902094909455805186815290519193928816927fddf252ad1be2c89b69c2b068fc378daa952ba7f163c4a11628f55a4df523b3ef92918290030190a35060019392505050565b6111e6336000356001600160e01b031916610def565b6112285760408051600160e51b62461bcd02815260206004820152601460248201526000805160206113c9833981519152604482015290519081900360640190fd5b600454600160a01b900460ff16156112825760408051600160e51b62461bcd0281526020600482015260126024820152600160721b71191ccb5cdd1bdc0b5a5ccb5cdd1bdc1c195902604482015290519081900360640190fd5b6001600160a01b0382166000908152600160205260409020546112a5908261136d565b6001600160a01b038316600090815260016020526040812091909155546112cc908261136d565b6000556040805182815290516001600160a01b038416917f0f6798a560793a54c3bcfe86a93cde1e73087d944c0ea20544137d4121396885919081900360200190a25050565b808203828111156106225760408051600160e51b62461bcd02815260206004820152601560248201527f64732d6d6174682d7375622d756e646572666c6f770000000000000000000000604482015290519081900360640190fd5b808201828110156106225760408051600160e51b62461bcd02815260206004820152601460248201527f64732d6d6174682d6164642d6f766572666c6f77000000000000000000000000604482015290519081900360640190fdfe64732d617574682d756e617574686f72697a6564000000000000000000000000a165627a7a72305820ab3b4aa9437cda22a8227673647ebc6f47b2e4e9c3d7c6c5bbbc75b30b15960e0029",
  "source": "/*\n  This file is part of The Colony Network.\n\n  The Colony Network is free software: you can redistribute it and/or modify\n  it under the terms of the GNU General Public License as published by\n  the Free Software Foundation, either version 3 of the License, or\n  (at your option) any later version.\n\n  The Colony Network is distributed in the hope that it will be useful,\n  but WITHOUT ANY WARRANTY; without even the implied warranty of\n  MERCHANTABILITY or FITNESS FOR A PARTICULAR PURPOSE.  See the\n  GNU General Public License for more details.\n\n  You should have received a copy of the GNU General Public License\n  along with The Colony Network. If not, see <http://www.gnu.org/licenses/>.\n*/\n\npragma solidity >=0.5.3;\n\nimport \"../lib/dappsys/token.sol\";\n\n\ncontract Token is DSToken {\n  bool public locked;\n\n  modifier unlocked {\n    if (locked) {\n      require(isAuthorized(msg.sender, msg.sig), \"colony-token-unauthorised\");\n    }\n    _;\n  }\n\n  constructor(bytes32 _name, bytes32 _symbol, uint8 _decimals)  DSToken(_symbol) public {\n    locked = true;\n\n    name = _name;\n    decimals = _decimals;\n  }\n\n  function transferFrom(address src, address dst, uint wad) public \n  unlocked\n  returns (bool)\n  {\n    return super.transferFrom(src, dst, wad);\n  }\n\n  function mint(address guy, uint wad) public {\n    super.mint(guy, wad);\n    emit Transfer(address(0x0), guy, wad);\n  }\n\n  function unlock() public\n  auth\n  {\n    locked = false;\n  }\n}\n",
  "sourcePath": "/Users/Elena/colonyToken/contracts/Token.sol",
  "compiler": {
    "name": "solc",
    "version": "0.5.6+commit.b259423e.Linux.g++"
  },
  "schemaVersion": "3.0.3",
  "updatedAt": "2019-03-20T17:00:17.575Z",
  "devdoc": {
    "methods": {}
  },
  "userdoc": {
    "methods": {}
  }
}