{
  "contractName": "Token",
  "abi": [
    {
      "constant": true,
      "inputs": [],
      "name": "name",
      "outputs": [
        {
          "name": "",
          "type": "bytes32"
        }
      ],
      "payable": false,
      "stateMutability": "view",
      "type": "function",
      "signature": "0x06fdde03"
    },
    {
      "constant": false,
      "inputs": [],
      "name": "stop",
      "outputs": [],
      "payable": false,
      "stateMutability": "nonpayable",
      "type": "function",
      "signature": "0x07da68f5"
    },
    {
      "constant": false,
      "inputs": [
        {
          "name": "guy",
          "type": "address"
        },
        {
          "name": "wad",
          "type": "uint256"
        }
      ],
      "name": "approve",
      "outputs": [
        {
          "name": "",
          "type": "bool"
        }
      ],
      "payable": false,
      "stateMutability": "nonpayable",
      "type": "function",
      "signature": "0x095ea7b3"
    },
    {
      "constant": false,
      "inputs": [
        {
          "name": "owner_",
          "type": "address"
        }
      ],
      "name": "setOwner",
      "outputs": [],
      "payable": false,
      "stateMutability": "nonpayable",
      "type": "function",
      "signature": "0x13af4035"
    },
    {
      "constant": true,
      "inputs": [],
      "name": "totalSupply",
      "outputs": [
        {
          "name": "",
          "type": "uint256"
        }
      ],
      "payable": false,
      "stateMutability": "view",
      "type": "function",
      "signature": "0x18160ddd"
    },
    {
      "constant": true,
      "inputs": [],
      "name": "decimals",
      "outputs": [
        {
          "name": "",
          "type": "uint256"
        }
      ],
      "payable": false,
      "stateMutability": "view",
      "type": "function",
      "signature": "0x313ce567"
    },
    {
      "constant": false,
      "inputs": [
        {
          "name": "wad",
          "type": "uint256"
        }
      ],
      "name": "burn",
      "outputs": [],
      "payable": false,
      "stateMutability": "nonpayable",
      "type": "function",
      "signature": "0x42966c68"
    },
    {
      "constant": false,
      "inputs": [
        {
          "name": "name_",
          "type": "bytes32"
        }
      ],
      "name": "setName",
      "outputs": [],
      "payable": false,
      "stateMutability": "nonpayable",
      "type": "function",
      "signature": "0x5ac801fe"
    },
    {
      "constant": true,
      "inputs": [
        {
          "name": "src",
          "type": "address"
        }
      ],
      "name": "balanceOf",
      "outputs": [
        {
          "name": "",
          "type": "uint256"
        }
      ],
      "payable": false,
      "stateMutability": "view",
      "type": "function",
      "signature": "0x70a08231"
    },
    {
      "constant": true,
      "inputs": [],
      "name": "stopped",
      "outputs": [
        {
          "name": "",
          "type": "bool"
        }
      ],
      "payable": false,
      "stateMutability": "view",
      "type": "function",
      "signature": "0x75f12b21"
    },
    {
      "constant": false,
      "inputs": [
        {
          "name": "authority_",
          "type": "address"
        }
      ],
      "name": "setAuthority",
      "outputs": [],
      "payable": false,
      "stateMutability": "nonpayable",
      "type": "function",
      "signature": "0x7a9e5e4b"
    },
    {
      "constant": true,
      "inputs": [],
      "name": "owner",
      "outputs": [
        {
          "name": "",
          "type": "address"
        }
      ],
      "payable": false,
      "stateMutability": "view",
      "type": "function",
      "signature": "0x8da5cb5b"
    },
    {
      "constant": true,
      "inputs": [],
      "name": "symbol",
      "outputs": [
        {
          "name": "",
          "type": "bytes32"
        }
      ],
      "payable": false,
      "stateMutability": "view",
      "type": "function",
      "signature": "0x95d89b41"
    },
    {
      "constant": false,
      "inputs": [
        {
          "name": "guy",
          "type": "address"
        },
        {
          "name": "wad",
          "type": "uint256"
        }
      ],
      "name": "burn",
      "outputs": [],
      "payable": false,
      "stateMutability": "nonpayable",
      "type": "function",
      "signature": "0x9dc29fac"
    },
    {
      "constant": false,
      "inputs": [
        {
          "name": "dst",
          "type": "address"
        },
        {
          "name": "wad",
          "type": "uint256"
        }
      ],
      "name": "transfer",
      "outputs": [
        {
          "name": "",
          "type": "bool"
        }
      ],
      "payable": false,
      "stateMutability": "nonpayable",
      "type": "function",
      "signature": "0xa9059cbb"
    },
    {
      "constant": false,
      "inputs": [
        {
          "name": "dst",
          "type": "address"
        },
        {
          "name": "wad",
          "type": "uint256"
        }
      ],
      "name": "push",
      "outputs": [],
      "payable": false,
      "stateMutability": "nonpayable",
      "type": "function",
      "signature": "0xb753a98c"
    },
    {
      "constant": false,
      "inputs": [
        {
          "name": "src",
          "type": "address"
        },
        {
          "name": "dst",
          "type": "address"
        },
        {
          "name": "wad",
          "type": "uint256"
        }
      ],
      "name": "move",
      "outputs": [],
      "payable": false,
      "stateMutability": "nonpayable",
      "type": "function",
      "signature": "0xbb35783b"
    },
    {
      "constant": false,
      "inputs": [],
      "name": "start",
      "outputs": [],
      "payable": false,
      "stateMutability": "nonpayable",
      "type": "function",
      "signature": "0xbe9a6555"
    },
    {
      "constant": true,
      "inputs": [],
      "name": "authority",
      "outputs": [
        {
          "name": "",
          "type": "address"
        }
      ],
      "payable": false,
      "stateMutability": "view",
      "type": "function",
      "signature": "0xbf7e214f"
    },
    {
      "constant": true,
      "inputs": [],
      "name": "locked",
      "outputs": [
        {
          "name": "",
          "type": "bool"
        }
      ],
      "payable": false,
      "stateMutability": "view",
      "type": "function",
      "signature": "0xcf309012"
    },
    {
      "constant": false,
      "inputs": [
        {
          "name": "guy",
          "type": "address"
        }
      ],
      "name": "approve",
      "outputs": [
        {
          "name": "",
          "type": "bool"
        }
      ],
      "payable": false,
      "stateMutability": "nonpayable",
      "type": "function",
      "signature": "0xdaea85c5"
    },
    {
      "constant": true,
      "inputs": [
        {
          "name": "src",
          "type": "address"
        },
        {
          "name": "guy",
          "type": "address"
        }
      ],
      "name": "allowance",
      "outputs": [
        {
          "name": "",
          "type": "uint256"
        }
      ],
      "payable": false,
      "stateMutability": "view",
      "type": "function",
      "signature": "0xdd62ed3e"
    },
    {
      "constant": false,
      "inputs": [
        {
          "name": "src",
          "type": "address"
        },
        {
          "name": "wad",
          "type": "uint256"
        }
      ],
      "name": "pull",
      "outputs": [],
      "payable": false,
      "stateMutability": "nonpayable",
      "type": "function",
      "signature": "0xf2d5d56b"
    },
    {
      "inputs": [
        {
          "name": "_name",
          "type": "bytes32"
        },
        {
          "name": "_symbol",
          "type": "bytes32"
        },
        {
          "name": "_decimals",
          "type": "uint8"
        }
      ],
      "payable": false,
      "stateMutability": "nonpayable",
      "type": "constructor",
      "signature": "constructor"
    },
    {
      "anonymous": false,
      "inputs": [
        {
          "indexed": true,
          "name": "guy",
          "type": "address"
        },
        {
          "indexed": false,
          "name": "wad",
          "type": "uint256"
        }
      ],
      "name": "Mint",
      "type": "event",
      "signature": "0x0f6798a560793a54c3bcfe86a93cde1e73087d944c0ea20544137d4121396885"
    },
    {
      "anonymous": false,
      "inputs": [
        {
          "indexed": true,
          "name": "guy",
          "type": "address"
        },
        {
          "indexed": false,
          "name": "wad",
          "type": "uint256"
        }
      ],
      "name": "Burn",
      "type": "event",
      "signature": "0xcc16f5dbb4873280815c1ee09dbd06736cffcc184412cf7a71a0fdb75d397ca5"
    },
    {
      "anonymous": false,
      "inputs": [
        {
          "indexed": true,
          "name": "authority",
          "type": "address"
        }
      ],
      "name": "LogSetAuthority",
      "type": "event",
      "signature": "0x1abebea81bfa2637f28358c371278fb15ede7ea8dd28d2e03b112ff6d936ada4"
    },
    {
      "anonymous": false,
      "inputs": [
        {
          "indexed": true,
          "name": "owner",
          "type": "address"
        }
      ],
      "name": "LogSetOwner",
      "type": "event",
      "signature": "0xce241d7ca1f669fee44b6fc00b8eba2df3bb514eed0f6f668f8f89096e81ed94"
    },
    {
      "anonymous": true,
      "inputs": [
        {
          "indexed": true,
          "name": "sig",
          "type": "bytes4"
        },
        {
          "indexed": true,
          "name": "guy",
          "type": "address"
        },
        {
          "indexed": true,
          "name": "foo",
          "type": "bytes32"
        },
        {
          "indexed": true,
          "name": "bar",
          "type": "bytes32"
        },
        {
          "indexed": false,
          "name": "wad",
          "type": "uint256"
        },
        {
          "indexed": false,
          "name": "fax",
          "type": "bytes"
        }
      ],
      "name": "LogNote",
      "type": "event",
      "signature": "0x644843f351d3fba4abcd60109eaff9f54bac8fb8ccf0bab941009c21df21cf31"
    },
    {
      "anonymous": false,
      "inputs": [
        {
          "indexed": true,
          "name": "src",
          "type": "address"
        },
        {
          "indexed": true,
          "name": "guy",
          "type": "address"
        },
        {
          "indexed": false,
          "name": "wad",
          "type": "uint256"
        }
      ],
      "name": "Approval",
      "type": "event",
      "signature": "0x8c5be1e5ebec7d5bd14f71427d1e84f3dd0314c0f7b2291e5b200ac8c7c3b925"
    },
    {
      "anonymous": false,
      "inputs": [
        {
          "indexed": true,
          "name": "src",
          "type": "address"
        },
        {
          "indexed": true,
          "name": "dst",
          "type": "address"
        },
        {
          "indexed": false,
          "name": "wad",
          "type": "uint256"
        }
      ],
      "name": "Transfer",
      "type": "event",
      "signature": "0xddf252ad1be2c89b69c2b068fc378daa952ba7f163c4a11628f55a4df523b3ef"
    },
    {
      "constant": false,
      "inputs": [
        {
          "name": "src",
          "type": "address"
        },
        {
          "name": "dst",
          "type": "address"
        },
        {
          "name": "wad",
          "type": "uint256"
        }
      ],
      "name": "transferFrom",
      "outputs": [
        {
          "name": "",
          "type": "bool"
        }
      ],
      "payable": false,
      "stateMutability": "nonpayable",
      "type": "function",
      "signature": "0x23b872dd"
    },
    {
      "constant": false,
      "inputs": [
        {
          "name": "guy",
          "type": "address"
        },
        {
          "name": "wad",
          "type": "uint256"
        }
      ],
      "name": "mint",
      "outputs": [],
      "payable": false,
      "stateMutability": "nonpayable",
      "type": "function",
      "signature": "0x40c10f19"
    },
    {
      "constant": false,
      "inputs": [
        {
          "name": "wad",
          "type": "uint256"
        }
      ],
      "name": "mint",
      "outputs": [],
      "payable": false,
      "stateMutability": "nonpayable",
      "type": "function",
      "signature": "0xa0712d68"
    },
    {
      "constant": false,
      "inputs": [],
      "name": "unlock",
      "outputs": [],
      "payable": false,
      "stateMutability": "nonpayable",
      "type": "function",
      "signature": "0xa69df4b5"
    }
  ],
  "bytecode": "0x60806040526012600655600060075534801561001a57600080fd5b506040516060806115358339810180604052606081101561003a57600080fd5b508051602080830151604093840151336000818152600190945285842084905583805560048054600160a060020a0319168217905594519394919390928492917fce241d7ca1f669fee44b6fc00b8eba2df3bb514eed0f6f668f8f89096e81ed949190a26005556008805460ff191660011790556007929092555060ff1660065561146b806100ca6000396000f3fe608060405234801561001057600080fd5b50600436106101c6576000357c0100000000000000000000000000000000000000000000000000000000900480638da5cb5b11610116578063bb35783b116100b4578063cf3090121161008e578063cf30901214610470578063daea85c514610478578063dd62ed3e1461049e578063f2d5d56b146104cc576101c6565b8063bb35783b1461042a578063be9a655514610460578063bf7e214f14610468576101c6565b8063a0712d68116100f0578063a0712d68146103ad578063a69df4b5146103ca578063a9059cbb146103d2578063b753a98c146103fe576101c6565b80638da5cb5b1461035557806395d89b41146103795780639dc29fac14610381576101c6565b8063313ce567116101835780635ac801fe1161015d5780635ac801fe146102e457806370a082311461030157806375f12b21146103275780637a9e5e4b1461032f576101c6565b8063313ce5671461029357806340c10f191461029b57806342966c68146102c7576101c6565b806306fdde03146101cb57806307da68f5146101e5578063095ea7b3146101ef57806313af40351461022f57806318160ddd1461025557806323b872dd1461025d575b600080fd5b6101d36104f8565b60408051918252519081900360200190f35b6101ed6104fe565b005b61021b6004803603604081101561020557600080fd5b50600160a060020a0381351690602001356105e3565b604080519115158252519081900360200190f35b6101ed6004803603602081101561024557600080fd5b5035600160a060020a0316610649565b6101d36106fe565b61021b6004803603606081101561027357600080fd5b50600160a060020a03813581169160208101359091169060400135610704565b6101d361078f565b6101ed600480360360408110156102b157600080fd5b50600160a060020a038135169060200135610795565b6101ed600480360360208110156102dd57600080fd5b50356107e4565b6101ed600480360360208110156102fa57600080fd5b50356107f1565b6101d36004803603602081101561031757600080fd5b5035600160a060020a031661084e565b61021b610869565b6101ed6004803603602081101561034557600080fd5b5035600160a060020a0316610879565b61035d61092e565b60408051600160a060020a039092168252519081900360200190f35b6101d361093d565b6101ed6004803603604081101561039757600080fd5b50600160a060020a038135169060200135610943565b6101ed600480360360208110156103c357600080fd5b5035610bfc565b6101ed610c06565b61021b600480360360408110156103e857600080fd5b50600160a060020a038135169060200135610c6a565b6101ed6004803603604081101561041457600080fd5b50600160a060020a038135169060200135610c77565b6101ed6004803603606081101561044057600080fd5b50600160a060020a03813581169160208101359091169060400135610c87565b6101ed610c98565b61035d610d77565b61021b610d86565b61021b6004803603602081101561048e57600080fd5b5035600160a060020a0316610d8f565b6101d3600480360360408110156104b457600080fd5b50600160a060020a0381358116916020013516610dee565b6101ed600480360360408110156104e257600080fd5b50600160a060020a038135169060200135610e19565b60075481565b61051433600035600160e060020a031916610e24565b610556576040805160e560020a62461bcd0281526020600482015260146024820152600080516020611420833981519152604482015290519081900360640190fd5b60408051348082526020820183815236938301849052600435936024359384928692339260008035600160e060020a03191693889391929060608201848480828437600083820152604051601f909101601f1916909201829003965090945050505050a450506004805474ff0000000000000000000000000000000000000000191660a060020a17905550565b60045460009060a060020a900460ff1615610636576040805160e560020a62461bcd0281526020600482015260126024820152600080516020611400833981519152604482015290519081900360640190fd5b6106408383610f24565b90505b92915050565b61065f33600035600160e060020a031916610e24565b6106a1576040805160e560020a62461bcd0281526020600482015260146024820152600080516020611420833981519152604482015290519081900360640190fd5b6004805473ffffffffffffffffffffffffffffffffffffffff1916600160a060020a0383811691909117918290556040519116907fce241d7ca1f669fee44b6fc00b8eba2df3bb514eed0f6f668f8f89096e81ed9490600090a250565b60005490565b60085460009060ff161561077c5761072833600035600160e060020a031916610e24565b61077c576040805160e560020a62461bcd02815260206004820152601960248201527f636f6c6f6e792d746f6b656e2d756e617574686f726973656400000000000000604482015290519081900360640190fd5b610787848484610f8a565b949350505050565b60065481565b61079f8282611211565b604080518281529051600160a060020a038416916000917fddf252ad1be2c89b69c2b068fc378daa952ba7f163c4a11628f55a4df523b3ef9181900360200190a35050565b6107ee3382610943565b50565b61080733600035600160e060020a031916610e24565b610849576040805160e560020a62461bcd0281526020600482015260146024820152600080516020611420833981519152604482015290519081900360640190fd5b600755565b600160a060020a031660009081526001602052604090205490565b60045460a060020a900460ff1681565b61088f33600035600160e060020a031916610e24565b6108d1576040805160e560020a62461bcd0281526020600482015260146024820152600080516020611420833981519152604482015290519081900360640190fd5b6003805473ffffffffffffffffffffffffffffffffffffffff1916600160a060020a0383811691909117918290556040519116907f1abebea81bfa2637f28358c371278fb15ede7ea8dd28d2e03b112ff6d936ada490600090a250565b600454600160a060020a031681565b60055481565b61095933600035600160e060020a031916610e24565b61099b576040805160e560020a62461bcd0281526020600482015260146024820152600080516020611420833981519152604482015290519081900360640190fd5b60045460a060020a900460ff16156109eb576040805160e560020a62461bcd0281526020600482015260126024820152600080516020611400833981519152604482015290519081900360640190fd5b600160a060020a0382163314801590610a295750600160a060020a038216600090815260026020908152604080832033845290915290205460001914155b15610afc57600160a060020a0382166000908152600260209081526040808320338452909152902054811115610aa9576040805160e560020a62461bcd02815260206004820152601e60248201527f64732d746f6b656e2d696e73756666696369656e742d617070726f76616c0000604482015290519081900360640190fd5b600160a060020a0382166000908152600260209081526040808320338452909152902054610ad79082611349565b600160a060020a03831660009081526002602090815260408083203384529091529020555b600160a060020a038216600090815260016020526040902054811115610b6c576040805160e560020a62461bcd02815260206004820152601d60248201527f64732d746f6b656e2d696e73756666696369656e742d62616c616e6365000000604482015290519081900360640190fd5b600160a060020a038216600090815260016020526040902054610b8f9082611349565b600160a060020a03831660009081526001602052604081209190915554610bb69082611349565b600055604080518281529051600160a060020a038416917fcc16f5dbb4873280815c1ee09dbd06736cffcc184412cf7a71a0fdb75d397ca5919081900360200190a25050565b6107ee3382610795565b610c1c33600035600160e060020a031916610e24565b610c5e576040805160e560020a62461bcd0281526020600482015260146024820152600080516020611420833981519152604482015290519081900360640190fd5b6008805460ff19169055565b6000610640338484610704565b610c82338383610704565b505050565b610c92838383610704565b50505050565b610cae33600035600160e060020a031916610e24565b610cf0576040805160e560020a62461bcd0281526020600482015260146024820152600080516020611420833981519152604482015290519081900360640190fd5b60408051348082526020820183815236938301849052600435936024359384928692339260008035600160e060020a03191693889391929060608201848480828437600083820152604051601f909101601f1916909201829003965090945050505050a450506004805474ff00000000000000000000000000000000000000001916905550565b600354600160a060020a031681565b60085460ff1681565b60045460009060a060020a900460ff1615610de2576040805160e560020a62461bcd0281526020600482015260126024820152600080516020611400833981519152604482015290519081900360640190fd5b61064382600019610f24565b600160a060020a03918216600090815260026020908152604080832093909416825291909152205490565b610c82823383610704565b6000600160a060020a038316301415610e3f57506001610643565b600454600160a060020a0384811691161415610e5d57506001610643565b600354600160a060020a0316610e7557506000610643565b600354604080517fb7009613000000000000000000000000000000000000000000000000000000008152600160a060020a038681166004830152306024830152600160e060020a0319861660448301529151919092169163b7009613916064808301926020929190829003018186803b158015610ef157600080fd5b505afa158015610f05573d6000803e3d6000fd5b505050506040513d6020811015610f1b57600080fd5b50519050610643565b336000818152600260209081526040808320600160a060020a038716808552908352818420869055815186815291519394909390927f8c5be1e5ebec7d5bd14f71427d1e84f3dd0314c0f7b2291e5b200ac8c7c3b925928290030190a350600192915050565b60045460009060a060020a900460ff1615610fdd576040805160e560020a62461bcd0281526020600482015260126024820152600080516020611400833981519152604482015290519081900360640190fd5b600160a060020a038416331480159061101b5750600160a060020a038416600090815260026020908152604080832033845290915290205460001914155b156110ee57600160a060020a038416600090815260026020908152604080832033845290915290205482111561109b576040805160e560020a62461bcd02815260206004820152601e60248201527f64732d746f6b656e2d696e73756666696369656e742d617070726f76616c0000604482015290519081900360640190fd5b600160a060020a03841660009081526002602090815260408083203384529091529020546110c99083611349565b600160a060020a03851660009081526002602090815260408083203384529091529020555b600160a060020a03841660009081526001602052604090205482111561115e576040805160e560020a62461bcd02815260206004820152601d60248201527f64732d746f6b656e2d696e73756666696369656e742d62616c616e6365000000604482015290519081900360640190fd5b600160a060020a0384166000908152600160205260409020546111819083611349565b600160a060020a0380861660009081526001602052604080822093909355908516815220546111b090836113a4565b600160a060020a0380851660008181526001602090815260409182902094909455805186815290519193928816927fddf252ad1be2c89b69c2b068fc378daa952ba7f163c4a11628f55a4df523b3ef92918290030190a35060019392505050565b61122733600035600160e060020a031916610e24565b611269576040805160e560020a62461bcd0281526020600482015260146024820152600080516020611420833981519152604482015290519081900360640190fd5b60045460a060020a900460ff16156112b9576040805160e560020a62461bcd0281526020600482015260126024820152600080516020611400833981519152604482015290519081900360640190fd5b600160a060020a0382166000908152600160205260409020546112dc90826113a4565b600160a060020a0383166000908152600160205260408120919091555461130390826113a4565b600055604080518281529051600160a060020a038416917f0f6798a560793a54c3bcfe86a93cde1e73087d944c0ea20544137d4121396885919081900360200190a25050565b80820382811115610643576040805160e560020a62461bcd02815260206004820152601560248201527f64732d6d6174682d7375622d756e646572666c6f770000000000000000000000604482015290519081900360640190fd5b80820182811015610643576040805160e560020a62461bcd02815260206004820152601460248201527f64732d6d6174682d6164642d6f766572666c6f77000000000000000000000000604482015290519081900360640190fdfe64732d73746f702d69732d73746f70706564000000000000000000000000000064732d617574682d756e617574686f72697a6564000000000000000000000000a165627a7a723058207be69409969986170e5798656dde8a733e323e6e245da647c20a0c2b5489c5a90029",
  "source": "/*\n  This file is part of The Colony Network.\n\n  The Colony Network is free software: you can redistribute it and/or modify\n  it under the terms of the GNU General Public License as published by\n  the Free Software Foundation, either version 3 of the License, or\n  (at your option) any later version.\n\n  The Colony Network is distributed in the hope that it will be useful,\n  but WITHOUT ANY WARRANTY; without even the implied warranty of\n  MERCHANTABILITY or FITNESS FOR A PARTICULAR PURPOSE.  See the\n  GNU General Public License for more details.\n\n  You should have received a copy of the GNU General Public License\n  along with The Colony Network. If not, see <http://www.gnu.org/licenses/>.\n*/\n\npragma solidity >=0.5.3;\n\nimport \"../lib/dappsys/token.sol\";\n\n\ncontract Token is DSToken {\n  bool public locked;\n\n  modifier unlocked {\n    if (locked) {\n      require(isAuthorized(msg.sender, msg.sig), \"colony-token-unauthorised\");\n    }\n    _;\n  }\n\n  constructor(bytes32 _name, bytes32 _symbol, uint8 _decimals)  DSToken(_symbol) public {\n    locked = true;\n\n    name = _name;\n    decimals = _decimals;\n  }\n\n  function transferFrom(address src, address dst, uint wad) public \n  unlocked\n  returns (bool)\n  {\n    return super.transferFrom(src, dst, wad);\n  }\n\n  function mint(address guy, uint wad) public {\n    super.mint(guy, wad);\n    emit Transfer(address(0x0), guy, wad);\n  }\n\n  function unlock() public\n  auth\n  {\n    locked = false;\n  }\n}\n",
  "sourcePath": "/Users/Elena/colonyToken/contracts/Token.sol",
  "compiler": {
    "name": "solc",
    "version": "0.5.6+commit.b259423e.Linux.g++"
  },
  "schemaVersion": "3.0.3",
  "updatedAt": "2019-03-21T12:59:45.074Z",
  "devdoc": {
    "methods": {}
  },
  "userdoc": {
    "methods": {}
  }
}