{
  "contractName": "TokenAuthority",
  "abi": [
    {
      "inputs": [
        {
          "internalType": "address",
          "name": "_token",
          "type": "address"
        },
        {
          "internalType": "address",
          "name": "_colony",
          "type": "address"
        },
        {
          "internalType": "address[]",
          "name": "allowedToTransfer",
          "type": "address[]"
        }
      ],
      "stateMutability": "nonpayable",
      "type": "constructor"
    },
    {
      "inputs": [],
      "name": "token",
      "outputs": [
        {
          "internalType": "address",
          "name": "",
          "type": "address"
        }
      ],
      "stateMutability": "view",
      "type": "function",
      "constant": true
    },
    {
      "inputs": [
        {
          "internalType": "address",
          "name": "src",
          "type": "address"
        },
        {
          "internalType": "address",
          "name": "dst",
          "type": "address"
        },
        {
          "internalType": "bytes4",
          "name": "sig",
          "type": "bytes4"
        }
      ],
      "name": "canCall",
      "outputs": [
        {
          "internalType": "bool",
          "name": "",
          "type": "bool"
        }
      ],
      "stateMutability": "view",
      "type": "function",
      "constant": true
    }
  ],
  "bytecode": "0x608060405234801561001057600080fd5b506040516104b33803806104b38339818101604052606081101561003357600080fd5b8151602083015160408085018051915193959294830192918464010000000082111561005e57600080fd5b90830190602082018581111561007357600080fd5b825186602082028301116401000000008211171561009057600080fd5b82525081516020918201928201910280838360005b838110156100bd5781810151838201526020016100a5565b50505050919091016040908152600080546001600160a01b0319166001600160a01b038a811691909117825588168152600160208181528383207fa9059cbb0000000000000000000000000000000000000000000000000000000084529052828220805460ff1990811683179091557fa0712d6800000000000000000000000000000000000000000000000000000000835283832080548216831790557f40c10f190000000000000000000000000000000000000000000000000000000083529282208054909316179091557fa9059cbb2ab09eb219583f4a59a5d0623ade346d962bcd4e46b11da047c9049b94507f23b872dd7302113369cda2901243429419bec145408fa8b352b3dd92b66c680b93507fa0712d680358d64f694230b7cc0b277c73686bdf768385d55cd7c547d0ffd30e92507f40c10f19c047ae7dfa66d6312b683d2ea3dfbcb4159e96b967c5f4b0a86f284291505b855181101561030e57600180600088848151811061023057fe5b60200260200101516001600160a01b03166001600160a01b031681526020019081526020016000206000876001600160e01b0319166001600160e01b031916815260200190815260200160002060006101000a81548160ff02191690831515021790555060018060008884815181106102a557fe5b6020908102919091018101516001600160a01b0316825281810192909252604090810160009081207fffffffff00000000000000000000000000000000000000000000000000000000891682529092529020805460ff1916911515919091179055600101610216565b505050505050505061018e806103256000396000f3fe608060405234801561001057600080fd5b50600436106100365760003560e01c8063b70096131461003b578063fc0c546a14610090575b600080fd5b61007c6004803603606081101561005157600080fd5b5080356001600160a01b0390811691602081013590911690604001356001600160e01b0319166100b4565b604080519115158252519081900360200190f35b610098610149565b604080516001600160a01b039092168252519081900360200190f35b60006001600160e01b03198216630852cd8d60e31b14806100e557506001600160e01b03198216632770a7eb60e21b145b156100f257506001610142565b6000546001600160a01b0384811691161461010f57506000610142565b506001600160a01b03831660009081526001602090815260408083206001600160e01b03198516845290915290205460ff165b9392505050565b6000546001600160a01b03168156fea2646970667358221220df16cc7bf90cfee4b33d6e227d0a388ff74c33a2de3f6e76c4fbc7527361f29464736f6c63430007030033",
  "immutableReferences": {},
  "source": "/*\n  This file is part of The Colony Network.\n\n  The Colony Network is free software: you can redistribute it and/or modify\n  it under the terms of the GNU General Public License as published by\n  the Free Software Foundation, either version 3 of the License, or\n  (at your option) any later version.\n\n  The Colony Network is distributed in the hope that it will be useful,\n  but WITHOUT ANY WARRANTY; without even the implied warranty of\n  MERCHANTABILITY or FITNESS FOR A PARTICULAR PURPOSE.  See the\n  GNU General Public License for more details.\n\n  You should have received a copy of the GNU General Public License\n  along with The Colony Network. If not, see <http://www.gnu.org/licenses/>.\n*/\n\npragma solidity 0.7.3;\n\nimport \"../lib/dappsys/auth.sol\";\n\n\ncontract TokenAuthority is DSAuthority {\n  address public token;\n  mapping(address => mapping(bytes4 => bool)) authorizations;\n\n  bytes4 constant BURN_FUNC_SIG = bytes4(keccak256(\"burn(uint256)\"));\n  bytes4 constant BURN_OVERLOAD_FUNC_SIG = bytes4(keccak256(\"burn(address,uint256)\"));\n\n  constructor(address _token, address _colony, address[] memory allowedToTransfer) public {\n    token = _token;\n    bytes4 transferSig = bytes4(keccak256(\"transfer(address,uint256)\"));\n    bytes4 transferFromSig = bytes4(keccak256(\"transferFrom(address,address,uint256)\"));\n    bytes4 mintSig = bytes4(keccak256(\"mint(uint256)\"));\n    bytes4 mintSigOverload = bytes4(keccak256(\"mint(address,uint256)\"));\n\n    authorizations[_colony][transferSig] = true;\n    authorizations[_colony][mintSig] = true;\n    authorizations[_colony][mintSigOverload] = true;\n\n    for (uint i = 0; i < allowedToTransfer.length; i++) {\n      authorizations[allowedToTransfer[i]][transferSig] = true;\n      authorizations[allowedToTransfer[i]][transferFromSig] = true;\n    }\n  }\n\n  function canCall(address src, address dst, bytes4 sig) public override view returns (bool) {\n    if (sig == BURN_FUNC_SIG || sig == BURN_OVERLOAD_FUNC_SIG) {\n      // We allow anyone to burn their own tokens even when the token is still locked\n      return true;\n    }\n\n    if (dst != token) {\n      return false;\n    }\n\n    return authorizations[src][sig];\n  }\n}\n",
  "sourcePath": "/Users/kronosapiens/code/colony/colonyToken/contracts/TokenAuthority.sol",
  "compiler": {
    "name": "solc",
    "version": "0.7.3+commit.9bfce1f6.Linux.g++"
  },
  "schemaVersion": "3.4.3",
  "updatedAt": "2021-12-04T17:36:54.428Z",
  "networkType": "ethereum",
  "devdoc": {
    "kind": "dev",
    "methods": {},
    "version": 1
  },
  "userdoc": {
    "kind": "user",
    "methods": {},
    "version": 1
  }
}