{
  "contractName": "TokenTransferBinaryRegulator",
  "abi": [
    {
      "constant": true,
      "inputs": [],
      "name": "owner",
      "outputs": [
        {
          "name": "",
          "type": "address"
        }
      ],
      "payable": false,
      "stateMutability": "view",
      "type": "function",
      "signature": "0x8da5cb5b"
    },
    {
      "constant": true,
      "inputs": [
        {
          "name": "",
          "type": "uint256"
        }
      ],
      "name": "transfers",
      "outputs": [
        {
          "name": "from",
          "type": "address"
        },
        {
          "name": "to",
          "type": "address"
        },
        {
          "name": "amount",
          "type": "uint256"
        },
        {
          "name": "valid",
          "type": "bool"
        }
      ],
      "payable": false,
      "stateMutability": "view",
      "type": "function",
      "signature": "0x9377d711"
    },
    {
      "constant": true,
      "inputs": [],
      "name": "transferCount",
      "outputs": [
        {
          "name": "",
          "type": "uint256"
        }
      ],
      "payable": false,
      "stateMutability": "view",
      "type": "function",
      "signature": "0xe3d33fc9"
    },
    {
      "constant": true,
      "inputs": [],
      "name": "token",
      "outputs": [
        {
          "name": "",
          "type": "address"
        }
      ],
      "payable": false,
      "stateMutability": "view",
      "type": "function",
      "signature": "0xfc0c546a"
    },
    {
      "inputs": [
        {
          "name": "_owner",
          "type": "address"
        },
        {
          "name": "_token",
          "type": "address"
        }
      ],
      "payable": false,
      "stateMutability": "nonpayable",
      "type": "constructor",
      "signature": "constructor"
    },
    {
      "anonymous": false,
      "inputs": [
        {
          "indexed": false,
          "name": "id",
          "type": "uint256"
        },
        {
          "indexed": false,
          "name": "from",
          "type": "address"
        },
        {
          "indexed": false,
          "name": "to",
          "type": "address"
        },
        {
          "indexed": false,
          "name": "amount",
          "type": "uint256"
        }
      ],
      "name": "TransferRequested",
      "type": "event",
      "signature": "0x962e9098ec9c999cf9e171626d6bed38f75fd5911f12a6fda5c2e76e895de6f5"
    },
    {
      "anonymous": false,
      "inputs": [
        {
          "indexed": false,
          "name": "id",
          "type": "uint256"
        }
      ],
      "name": "TransferRequestExecuted",
      "type": "event",
      "signature": "0x93dad25d51a9ac224a329583120118c4360c90222ea94a352f2698a8d51e3164"
    },
    {
      "anonymous": false,
      "inputs": [
        {
          "indexed": false,
          "name": "id",
          "type": "uint256"
        }
      ],
      "name": "TransferRequestInvalidated",
      "type": "event",
      "signature": "0x0a42590a25d000778e80cddf36a6dab8fc6742f715526ddef5148f7a072c71bc"
    },
    {
      "constant": false,
      "inputs": [
        {
          "name": "_from",
          "type": "address"
        },
        {
          "name": "_to",
          "type": "address"
        },
        {
          "name": "_amount",
          "type": "uint256"
        }
      ],
      "name": "requestTransfer",
      "outputs": [],
      "payable": false,
      "stateMutability": "nonpayable",
      "type": "function",
      "signature": "0xa4293ead"
    },
    {
      "constant": false,
      "inputs": [
        {
          "name": "_id",
          "type": "uint256"
        }
      ],
      "name": "executeTransfer",
      "outputs": [],
      "payable": false,
      "stateMutability": "nonpayable",
      "type": "function",
      "signature": "0xf05d5752"
    },
    {
      "constant": false,
      "inputs": [
        {
          "name": "_id",
          "type": "uint256"
        }
      ],
      "name": "invalidateRequest",
      "outputs": [],
      "payable": false,
      "stateMutability": "nonpayable",
      "type": "function",
      "signature": "0xb9907174"
    }
  ],
  "bytecode": "0x6080604052600060015534801561001557600080fd5b5060405160408061070b83398101604052805160209091015160028054600160a060020a03938416600160a060020a0319918216179091556003805493909216921691909117905561069f8061006c6000396000f3006080604052600436106100825763ffffffff7c01000000000000000000000000000000000000000000000000000000006000350416638da5cb5b81146100875780639377d711146100b8578063a4293ead14610104578063b990717414610130578063e3d33fc914610148578063f05d57521461016f578063fc0c546a14610187575b600080fd5b34801561009357600080fd5b5061009c61019c565b60408051600160a060020a039092168252519081900360200190f35b3480156100c457600080fd5b506100d06004356101ab565b60408051600160a060020a039586168152939094166020840152828401919091521515606082015290519081900360800190f35b34801561011057600080fd5b5061012e600160a060020a03600435811690602435166044356101e2565b005b34801561013c57600080fd5b5061012e600435610351565b34801561015457600080fd5b5061015d61044b565b60408051918252519081900360200190f35b34801561017b57600080fd5b5061012e600435610451565b34801561019357600080fd5b5061009c610664565b600254600160a060020a031681565b6000602081905290815260409020805460018201546002830154600390930154600160a060020a0392831693919092169160ff1684565b600160a060020a0383163314610268576040805160e560020a62461bcd02815260206004820152602760248201527f636f6c6f6e792d746f6b656e2d726567756c61746f722d6e6f742d66726f6d2d60448201527f6164647265737300000000000000000000000000000000000000000000000000606482015290519081900360840190fd5b6001805481018082556040805160808082018352600160a060020a0388811680845288821660208086018281528688018b815260608089018c815260009b8c528b85529a8a90209851895473ffffffffffffffffffffffffffffffffffffffff19908116918916919091178a559251898d01805490941697169690961790915551600287015596516003909501805460ff191695151595909517909455955484519081529485019590955283830191909152928201849052517f962e9098ec9c999cf9e171626d6bed38f75fd5911f12a6fda5c2e76e895de6f5929181900390910190a1505050565b600081815260208190526040902054600160a060020a03163314806103805750600254600160a060020a031633145b15156103fc576040805160e560020a62461bcd02815260206004820152602760248201527f636f6c6f6e792d746f6b656e2d726567756c61746f722d6e6f742d66726f6d2d60448201527f6164647265737300000000000000000000000000000000000000000000000000606482015290519081900360840190fd5b60008181526020818152604091829020600301805460ff19169055815183815291517f0a42590a25d000778e80cddf36a6dab8fc6742f715526ddef5148f7a072c71bc9281900390910190a150565b60015481565b60008181526020819052604090206003015460ff1615156104e2576040805160e560020a62461bcd02815260206004820152603b60248201527f636f6c6f6e792d746f6b656e2d726567756c61746f722d7472616e736665722d60448201527f696e76616c69642d6f722d616c72656164792d65786563757465640000000000606482015290519081900360840190fd5b600254600160a060020a0316331461056a576040805160e560020a62461bcd02815260206004820152602d60248201527f636f6c6f6e792d746f6b656e2d726567756c61746f722d6f6e6c792d6f776e6560448201527f722d63616e2d6578656375746500000000000000000000000000000000000000606482015290519081900360840190fd5b6000818152602081815260408083206003808201805460ff19169055548154600183015460029093015484517f23b872dd000000000000000000000000000000000000000000000000000000008152600160a060020a0392831660048201529382166024850152604484015292519216936323b872dd9360648084019491939192918390030190829087803b15801561060257600080fd5b505af1158015610616573d6000803e3d6000fd5b505050506040513d602081101561062c57600080fd5b50506040805182815290517f93dad25d51a9ac224a329583120118c4360c90222ea94a352f2698a8d51e31649181900360200190a150565b600354600160a060020a0316815600a165627a7a72305820d43cd0b983b455d0064576a4426b1e2746b0bdff4900df27f1a70dd1895a51470029",
  "source": "/*\n  This file is part of The Colony Network.\n\n  The Colony Network is free software: you can redistribute it and/or modify\n  it under the terms of the GNU General Public License as published by\n  the Free Software Foundation, either version 3 of the License, or\n  (at your option) any later version.\n\n  The Colony Network is distributed in the hope that it will be useful,\n  but WITHOUT ANY WARRANTY; without even the implied warranty of\n  MERCHANTABILITY or FITNESS FOR A PARTICULAR PURPOSE.  See the\n  GNU General Public License for more details.\n\n  You should have received a copy of the GNU General Public License\n  along with The Colony Network. If not, see <http://www.gnu.org/licenses/>.\n*/\n\npragma solidity >=0.4.23;\n\nimport \"./ERC20Extended.sol\";\n\n\ncontract TokenTransferBinaryRegulator {\n  struct Transfer {\n    address from;\n    address to;\n    uint256 amount;\n    bool valid;\n  }\n\n  mapping (uint256 => Transfer) public transfers;\n  uint public transferCount = 0;\n  address public owner;\n  ERC20Extended public token;\n\n  event TransferRequested(uint256 id, address from, address to, uint256 amount);\n  event TransferRequestExecuted(uint256 id);\n  event TransferRequestInvalidated(uint256 id);\n\n  constructor(address _owner, ERC20Extended _token) public {\n    owner = _owner;\n    token = _token;\n  }\n\n  function requestTransfer(address _from, address _to, uint256 _amount) public {\n    require(_from == msg.sender, \"colony-token-regulator-not-from-address\");\n    transferCount += 1;\n    transfers[transferCount] = Transfer(_from, _to, _amount, true);\n\n    emit TransferRequested(transferCount, _from, _to, _amount);\n  }\n\n  function executeTransfer(uint256 _id) public {\n    require(transfers[_id].valid, \"colony-token-regulator-transfer-invalid-or-already-executed\");\n    require(msg.sender == owner, \"colony-token-regulator-only-owner-can-execute\");\n    transfers[_id].valid = false;\n    token.transferFrom(transfers[_id].from, transfers[_id].to, transfers[_id].amount);\n  \n    emit TransferRequestExecuted(_id);\n  }\n\n  function invalidateRequest(uint256 _id) public {\n    require(transfers[_id].from == msg.sender || msg.sender == owner, \"colony-token-regulator-not-from-address\");\n    transfers[_id].valid = false;\n\n    emit TransferRequestInvalidated(_id);\n  }\n}\n",
  "sourcePath": "/Users/Elena/colonyToken/contracts/TokenTransferBinaryRegulator.sol",
  "compiler": {
    "name": "solc",
    "version": "0.4.25+commit.59dbf8f1.Emscripten.clang"
  },
  "schemaVersion": "3.0.0-beta.1",
  "updatedAt": "2019-03-18T10:28:07.010Z"
}