{
  "contractName": "Token",
  "abi": [
    {
      "constant": true,
      "inputs": [],
      "name": "name",
      "outputs": [
        {
          "name": "",
          "type": "string"
        }
      ],
      "payable": false,
      "stateMutability": "view",
      "type": "function",
      "signature": "0x06fdde03"
    },
    {
      "constant": false,
      "inputs": [
        {
          "name": "guy",
          "type": "address"
        },
        {
          "name": "wad",
          "type": "uint256"
        }
      ],
      "name": "approve",
      "outputs": [
        {
          "name": "",
          "type": "bool"
        }
      ],
      "payable": false,
      "stateMutability": "nonpayable",
      "type": "function",
      "signature": "0x095ea7b3"
    },
    {
      "constant": false,
      "inputs": [
        {
          "name": "owner_",
          "type": "address"
        }
      ],
      "name": "setOwner",
      "outputs": [],
      "payable": false,
      "stateMutability": "nonpayable",
      "type": "function",
      "signature": "0x13af4035"
    },
    {
      "constant": true,
      "inputs": [],
      "name": "totalSupply",
      "outputs": [
        {
          "name": "",
          "type": "uint256"
        }
      ],
      "payable": false,
      "stateMutability": "view",
      "type": "function",
      "signature": "0x18160ddd"
    },
    {
      "constant": true,
      "inputs": [],
      "name": "decimals",
      "outputs": [
        {
          "name": "",
          "type": "uint8"
        }
      ],
      "payable": false,
      "stateMutability": "view",
      "type": "function",
      "signature": "0x313ce567"
    },
    {
      "constant": true,
      "inputs": [
        {
          "name": "src",
          "type": "address"
        }
      ],
      "name": "balanceOf",
      "outputs": [
        {
          "name": "",
          "type": "uint256"
        }
      ],
      "payable": false,
      "stateMutability": "view",
      "type": "function",
      "signature": "0x70a08231"
    },
    {
      "constant": false,
      "inputs": [
        {
          "name": "authority_",
          "type": "address"
        }
      ],
      "name": "setAuthority",
      "outputs": [],
      "payable": false,
      "stateMutability": "nonpayable",
      "type": "function",
      "signature": "0x7a9e5e4b"
    },
    {
      "constant": true,
      "inputs": [],
      "name": "owner",
      "outputs": [
        {
          "name": "",
          "type": "address"
        }
      ],
      "payable": false,
      "stateMutability": "view",
      "type": "function",
      "signature": "0x8da5cb5b"
    },
    {
      "constant": true,
      "inputs": [],
      "name": "symbol",
      "outputs": [
        {
          "name": "",
          "type": "string"
        }
      ],
      "payable": false,
      "stateMutability": "view",
      "type": "function",
      "signature": "0x95d89b41"
    },
    {
      "constant": false,
      "inputs": [
        {
          "name": "dst",
          "type": "address"
        },
        {
          "name": "wad",
          "type": "uint256"
        }
      ],
      "name": "transfer",
      "outputs": [
        {
          "name": "",
          "type": "bool"
        }
      ],
      "payable": false,
      "stateMutability": "nonpayable",
      "type": "function",
      "signature": "0xa9059cbb"
    },
    {
      "constant": true,
      "inputs": [],
      "name": "authority",
      "outputs": [
        {
          "name": "",
          "type": "address"
        }
      ],
      "payable": false,
      "stateMutability": "view",
      "type": "function",
      "signature": "0xbf7e214f"
    },
    {
      "constant": true,
      "inputs": [],
      "name": "locked",
      "outputs": [
        {
          "name": "",
          "type": "bool"
        }
      ],
      "payable": false,
      "stateMutability": "view",
      "type": "function",
      "signature": "0xcf309012"
    },
    {
      "constant": true,
      "inputs": [
        {
          "name": "src",
          "type": "address"
        },
        {
          "name": "guy",
          "type": "address"
        }
      ],
      "name": "allowance",
      "outputs": [
        {
          "name": "",
          "type": "uint256"
        }
      ],
      "payable": false,
      "stateMutability": "view",
      "type": "function",
      "signature": "0xdd62ed3e"
    },
    {
      "inputs": [
        {
          "name": "_name",
          "type": "string"
        },
        {
          "name": "_symbol",
          "type": "string"
        },
        {
          "name": "_decimals",
          "type": "uint8"
        }
      ],
      "payable": false,
      "stateMutability": "nonpayable",
      "type": "constructor",
      "signature": "constructor"
    },
    {
      "anonymous": false,
      "inputs": [
        {
          "indexed": true,
          "name": "guy",
          "type": "address"
        },
        {
          "indexed": false,
          "name": "wad",
          "type": "uint256"
        }
      ],
      "name": "Mint",
      "type": "event",
      "signature": "0x0f6798a560793a54c3bcfe86a93cde1e73087d944c0ea20544137d4121396885"
    },
    {
      "anonymous": false,
      "inputs": [
        {
          "indexed": true,
          "name": "guy",
          "type": "address"
        },
        {
          "indexed": false,
          "name": "wad",
          "type": "uint256"
        }
      ],
      "name": "Burn",
      "type": "event",
      "signature": "0xcc16f5dbb4873280815c1ee09dbd06736cffcc184412cf7a71a0fdb75d397ca5"
    },
    {
      "anonymous": false,
      "inputs": [
        {
          "indexed": true,
          "name": "authority",
          "type": "address"
        }
      ],
      "name": "LogSetAuthority",
      "type": "event",
      "signature": "0x1abebea81bfa2637f28358c371278fb15ede7ea8dd28d2e03b112ff6d936ada4"
    },
    {
      "anonymous": false,
      "inputs": [
        {
          "indexed": true,
          "name": "owner",
          "type": "address"
        }
      ],
      "name": "LogSetOwner",
      "type": "event",
      "signature": "0xce241d7ca1f669fee44b6fc00b8eba2df3bb514eed0f6f668f8f89096e81ed94"
    },
    {
      "anonymous": false,
      "inputs": [
        {
          "indexed": true,
          "name": "src",
          "type": "address"
        },
        {
          "indexed": true,
          "name": "guy",
          "type": "address"
        },
        {
          "indexed": false,
          "name": "wad",
          "type": "uint256"
        }
      ],
      "name": "Approval",
      "type": "event",
      "signature": "0x8c5be1e5ebec7d5bd14f71427d1e84f3dd0314c0f7b2291e5b200ac8c7c3b925"
    },
    {
      "anonymous": false,
      "inputs": [
        {
          "indexed": true,
          "name": "src",
          "type": "address"
        },
        {
          "indexed": true,
          "name": "dst",
          "type": "address"
        },
        {
          "indexed": false,
          "name": "wad",
          "type": "uint256"
        }
      ],
      "name": "Transfer",
      "type": "event",
      "signature": "0xddf252ad1be2c89b69c2b068fc378daa952ba7f163c4a11628f55a4df523b3ef"
    },
    {
      "constant": false,
      "inputs": [
        {
          "name": "src",
          "type": "address"
        },
        {
          "name": "dst",
          "type": "address"
        },
        {
          "name": "wad",
          "type": "uint256"
        }
      ],
      "name": "transferFrom",
      "outputs": [
        {
          "name": "",
          "type": "bool"
        }
      ],
      "payable": false,
      "stateMutability": "nonpayable",
      "type": "function",
      "signature": "0x23b872dd"
    },
    {
      "constant": false,
      "inputs": [
        {
          "name": "wad",
          "type": "uint256"
        }
      ],
      "name": "mint",
      "outputs": [],
      "payable": false,
      "stateMutability": "nonpayable",
      "type": "function",
      "signature": "0xa0712d68"
    },
    {
      "constant": false,
      "inputs": [
        {
          "name": "wad",
          "type": "uint256"
        }
      ],
      "name": "burn",
      "outputs": [],
      "payable": false,
      "stateMutability": "nonpayable",
      "type": "function",
      "signature": "0x42966c68"
    },
    {
      "constant": false,
      "inputs": [],
      "name": "unlock",
      "outputs": [],
      "payable": false,
      "stateMutability": "nonpayable",
      "type": "function",
      "signature": "0xa69df4b5"
    }
  ],
  "bytecode": "0x60806040523480156200001157600080fd5b5060405162000f8838038062000f88833981018060405260608110156200003757600080fd5b8101908080516401000000008111156200005057600080fd5b820160208101848111156200006457600080fd5b81516401000000008111828201871017156200007f57600080fd5b505092919060200180516401000000008111156200009c57600080fd5b82016020810184811115620000b057600080fd5b8151640100000000811182820187101715620000cb57600080fd5b50506020918201513360008181526001909452604080852085905584805560048054600160a060020a0319168317905551929550909350917fce241d7ca1f669fee44b6fc00b8eba2df3bb514eed0f6f668f8f89096e81ed9491a282516200013b90600690602086019062000199565b5081516200015190600590602085019062000199565b506004805460ff909216740100000000000000000000000000000000000000000260a060020a60ff021990921691909117905550506007805460ff191660011790556200023e565b828054600181600116156101000203166002900490600052602060002090601f016020900481019282601f10620001dc57805160ff19168380011785556200020c565b828001600101855582156200020c579182015b828111156200020c578251825591602001919060010190620001ef565b506200021a9291506200021e565b5090565b6200023b91905b808211156200021a576000815560010162000225565b90565b610d3a806200024e6000396000f3fe608060405234801561001057600080fd5b5060043610610128576000357c0100000000000000000000000000000000000000000000000000000000900480637a9e5e4b116100bf578063a69df4b51161008e578063a69df4b514610332578063a9059cbb1461033a578063bf7e214f14610366578063cf3090121461036e578063dd62ed3e1461037657610128565b80637a9e5e4b146102c35780638da5cb5b146102e957806395d89b411461030d578063a0712d681461031557610128565b806323b872dd116100fb57806323b872dd1461022c578063313ce5671461026257806342966c681461028057806370a082311461029d57610128565b806306fdde031461012d578063095ea7b3146101aa57806313af4035146101ea57806318160ddd14610212575b600080fd5b6101356103a4565b6040805160208082528351818301528351919283929083019185019080838360005b8381101561016f578181015183820152602001610157565b50505050905090810190601f16801561019c5780820380516001836020036101000a031916815260200191505b509250505060405180910390f35b6101d6600480360360408110156101c057600080fd5b50600160a060020a038135169060200135610432565b604080519115158252519081900360200190f35b6102106004803603602081101561020057600080fd5b5035600160a060020a0316610499565b005b61021a61054e565b60408051918252519081900360200190f35b6101d66004803603606081101561024257600080fd5b50600160a060020a03813581169160208101359091169060400135610554565b61026a6105df565b6040805160ff9092168252519081900360200190f35b6102106004803603602081101561029657600080fd5b5035610600565b61021a600480360360208110156102b357600080fd5b5035600160a060020a0316610674565b610210600480360360208110156102d957600080fd5b5035600160a060020a031661068f565b6102f1610744565b60408051600160a060020a039092168252519081900360200190f35b610135610753565b6102106004803603602081101561032b57600080fd5b50356107ae565b61021061087a565b6101d66004803603604081101561035057600080fd5b50600160a060020a0381351690602001356108de565b6102f16108f2565b6101d6610901565b61021a6004803603604081101561038c57600080fd5b50600160a060020a038135811691602001351661090a565b6006805460408051602060026001851615610100026000190190941693909304601f8101849004840282018401909252818152929183018282801561042a5780601f106103ff5761010080835404028352916020019161042a565b820191906000526020600020905b81548152906001019060200180831161040d57829003601f168201915b505050505081565b336000818152600260209081526040808320600160a060020a038716808552908352818420869055815186815291519394909390927f8c5be1e5ebec7d5bd14f71427d1e84f3dd0314c0f7b2291e5b200ac8c7c3b925928290030190a35060015b92915050565b6104af33600035600160e060020a031916610935565b6104f1576040805160e560020a62461bcd0281526020600482015260146024820152600080516020610cef833981519152604482015290519081900360640190fd5b6004805473ffffffffffffffffffffffffffffffffffffffff1916600160a060020a0383811691909117918290556040519116907fce241d7ca1f669fee44b6fc00b8eba2df3bb514eed0f6f668f8f89096e81ed9490600090a250565b60005490565b60075460009060ff16156105cc5761057833600035600160e060020a031916610935565b6105cc576040805160e560020a62461bcd02815260206004820152601960248201527f636f6c6f6e792d746f6b656e2d756e617574686f726973656400000000000000604482015290519081900360640190fd5b6105d7848484610a35565b949350505050565b60045474010000000000000000000000000000000000000000900460ff1681565b3360009081526001602052604090205461061a9082610c38565b33600090815260016020526040812091909155546106389082610c38565b60005560408051828152905133917fcc16f5dbb4873280815c1ee09dbd06736cffcc184412cf7a71a0fdb75d397ca5919081900360200190a250565b600160a060020a031660009081526001602052604090205490565b6106a533600035600160e060020a031916610935565b6106e7576040805160e560020a62461bcd0281526020600482015260146024820152600080516020610cef833981519152604482015290519081900360640190fd5b6003805473ffffffffffffffffffffffffffffffffffffffff1916600160a060020a0383811691909117918290556040519116907f1abebea81bfa2637f28358c371278fb15ede7ea8dd28d2e03b112ff6d936ada490600090a250565b600454600160a060020a031681565b6005805460408051602060026001851615610100026000190190941693909304601f8101849004840282018401909252818152929183018282801561042a5780601f106103ff5761010080835404028352916020019161042a565b6107c433600035600160e060020a031916610935565b610806576040805160e560020a62461bcd0281526020600482015260146024820152600080516020610cef833981519152604482015290519081900360640190fd5b336000908152600160205260409020546108209082610c93565b336000908152600160205260408120919091555461083e9082610c93565b60005560408051828152905133917f0f6798a560793a54c3bcfe86a93cde1e73087d944c0ea20544137d4121396885919081900360200190a250565b61089033600035600160e060020a031916610935565b6108d2576040805160e560020a62461bcd0281526020600482015260146024820152600080516020610cef833981519152604482015290519081900360640190fd5b6007805460ff19169055565b60006108eb338484610554565b9392505050565b600354600160a060020a031681565b60075460ff1681565b600160a060020a03918216600090815260026020908152604080832093909416825291909152205490565b6000600160a060020a03831630141561095057506001610493565b600454600160a060020a038481169116141561096e57506001610493565b600354600160a060020a031661098657506000610493565b600354604080517fb7009613000000000000000000000000000000000000000000000000000000008152600160a060020a038681166004830152306024830152600160e060020a0319861660448301529151919092169163b7009613916064808301926020929190829003018186803b158015610a0257600080fd5b505afa158015610a16573d6000803e3d6000fd5b505050506040513d6020811015610a2c57600080fd5b50519050610493565b6000600160a060020a0384163314610b1557600160a060020a0384166000908152600260209081526040808320338452909152902054821115610ac2576040805160e560020a62461bcd02815260206004820152601e60248201527f64732d746f6b656e2d696e73756666696369656e742d617070726f76616c0000604482015290519081900360640190fd5b600160a060020a0384166000908152600260209081526040808320338452909152902054610af09083610c38565b600160a060020a03851660009081526002602090815260408083203384529091529020555b600160a060020a038416600090815260016020526040902054821115610b85576040805160e560020a62461bcd02815260206004820152601d60248201527f64732d746f6b656e2d696e73756666696369656e742d62616c616e6365000000604482015290519081900360640190fd5b600160a060020a038416600090815260016020526040902054610ba89083610c38565b600160a060020a038086166000908152600160205260408082209390935590851681522054610bd79083610c93565b600160a060020a0380851660008181526001602090815260409182902094909455805186815290519193928816927fddf252ad1be2c89b69c2b068fc378daa952ba7f163c4a11628f55a4df523b3ef92918290030190a35060019392505050565b80820382811115610493576040805160e560020a62461bcd02815260206004820152601560248201527f64732d6d6174682d7375622d756e646572666c6f770000000000000000000000604482015290519081900360640190fd5b80820182811015610493576040805160e560020a62461bcd02815260206004820152601460248201527f64732d6d6174682d6164642d6f766572666c6f77000000000000000000000000604482015290519081900360640190fdfe64732d617574682d756e617574686f72697a6564000000000000000000000000a165627a7a7230582052377b9dd4b8e1c8846c9aee02295aec7e5219c7ba1d06faa532e4f82551cf210029",
  "source": "/*\n  This file is part of The Colony Network.\n\n  The Colony Network is free software: you can redistribute it and/or modify\n  it under the terms of the GNU General Public License as published by\n  the Free Software Foundation, either version 3 of the License, or\n  (at your option) any later version.\n\n  The Colony Network is distributed in the hope that it will be useful,\n  but WITHOUT ANY WARRANTY; without even the implied warranty of\n  MERCHANTABILITY or FITNESS FOR A PARTICULAR PURPOSE.  See the\n  GNU General Public License for more details.\n\n  You should have received a copy of the GNU General Public License\n  along with The Colony Network. If not, see <http://www.gnu.org/licenses/>.\n*/\n\npragma solidity >=0.5.3;\n\n\nimport \"../lib/dappsys/auth.sol\";\nimport \"../lib/dappsys/base.sol\";\nimport \"./ERC20Extended.sol\";\n\n\ncontract Token is DSTokenBase(0), DSAuth, ERC20Extended {\n  uint8 public decimals;\n  string public symbol;\n  string public name;\n\n  bool public locked;\n\n  modifier unlocked {\n    if (locked) {\n      require(isAuthorized(msg.sender, msg.sig), \"colony-token-unauthorised\");\n    }\n    _;\n  }\n\n  constructor(string memory _name, string memory _symbol, uint8 _decimals) public {\n    name = _name;\n    symbol = _symbol;\n    decimals = _decimals;\n    locked = true;\n  }\n\n  function transferFrom(address src, address dst, uint wad) public \n  unlocked\n  returns (bool)\n  {\n    return super.transferFrom(src, dst, wad);\n  }\n\n  function mint(uint wad) public\n  auth\n  {\n    _balances[msg.sender] = add(_balances[msg.sender], wad);\n    _supply = add(_supply, wad);\n\n    emit Mint(msg.sender, wad);\n  }\n\n  function burn(uint wad) public {\n    _balances[msg.sender] = sub(_balances[msg.sender], wad);\n    _supply = sub(_supply, wad);\n\n    emit Burn(msg.sender, wad);\n  }\n\n  function unlock() public\n  auth\n  {\n    locked = false;\n  }\n}\n",
  "sourcePath": "/Users/Elena/colonyToken/contracts/Token.sol",
  "compiler": {
    "name": "solc",
    "version": "0.5.6+commit.b259423e.Linux.g++"
  },
  "schemaVersion": "3.0.3",
  "updatedAt": "2019-03-20T08:56:58.721Z",
  "devdoc": {
    "methods": {}
  },
  "userdoc": {
    "methods": {}
  }
}