{
  "contractName": "Token",
  "abi": [
    {
      "inputs": [
        {
          "internalType": "string",
          "name": "_name",
          "type": "string"
        },
        {
          "internalType": "string",
          "name": "_symbol",
          "type": "string"
        },
        {
          "internalType": "uint8",
          "name": "_decimals",
          "type": "uint8"
        }
      ],
      "stateMutability": "nonpayable",
      "type": "constructor"
    },
    {
      "anonymous": false,
      "inputs": [
        {
          "indexed": true,
          "internalType": "address",
          "name": "src",
          "type": "address"
        },
        {
          "indexed": true,
          "internalType": "address",
          "name": "guy",
          "type": "address"
        },
        {
          "indexed": false,
          "internalType": "uint256",
          "name": "wad",
          "type": "uint256"
        }
      ],
      "name": "Approval",
      "type": "event"
    },
    {
      "anonymous": false,
      "inputs": [
        {
          "indexed": true,
          "internalType": "address",
          "name": "guy",
          "type": "address"
        },
        {
          "indexed": false,
          "internalType": "uint256",
          "name": "wad",
          "type": "uint256"
        }
      ],
      "name": "Burn",
      "type": "event"
    },
    {
      "anonymous": false,
      "inputs": [
        {
          "indexed": true,
          "internalType": "address",
          "name": "authority",
          "type": "address"
        }
      ],
      "name": "LogSetAuthority",
      "type": "event"
    },
    {
      "anonymous": false,
      "inputs": [
        {
          "indexed": true,
          "internalType": "address",
          "name": "owner",
          "type": "address"
        }
      ],
      "name": "LogSetOwner",
      "type": "event"
    },
    {
      "anonymous": false,
      "inputs": [
        {
          "indexed": true,
          "internalType": "address",
          "name": "guy",
          "type": "address"
        },
        {
          "indexed": false,
          "internalType": "uint256",
          "name": "wad",
          "type": "uint256"
        }
      ],
      "name": "Mint",
      "type": "event"
    },
    {
      "anonymous": false,
      "inputs": [
        {
          "indexed": true,
          "internalType": "address",
          "name": "src",
          "type": "address"
        },
        {
          "indexed": true,
          "internalType": "address",
          "name": "dst",
          "type": "address"
        },
        {
          "indexed": false,
          "internalType": "uint256",
          "name": "wad",
          "type": "uint256"
        }
      ],
      "name": "Transfer",
      "type": "event"
    },
    {
      "inputs": [
        {
          "internalType": "address",
          "name": "src",
          "type": "address"
        },
        {
          "internalType": "address",
          "name": "guy",
          "type": "address"
        }
      ],
      "name": "allowance",
      "outputs": [
        {
          "internalType": "uint256",
          "name": "",
          "type": "uint256"
        }
      ],
      "stateMutability": "view",
      "type": "function",
      "constant": true
    },
    {
      "inputs": [
        {
          "internalType": "address",
          "name": "guy",
          "type": "address"
        },
        {
          "internalType": "uint256",
          "name": "wad",
          "type": "uint256"
        }
      ],
      "name": "approve",
      "outputs": [
        {
          "internalType": "bool",
          "name": "",
          "type": "bool"
        }
      ],
      "stateMutability": "nonpayable",
      "type": "function"
    },
    {
      "inputs": [],
      "name": "authority",
      "outputs": [
        {
          "internalType": "contract DSAuthority",
          "name": "",
          "type": "address"
        }
      ],
      "stateMutability": "view",
      "type": "function",
      "constant": true
    },
    {
      "inputs": [
        {
          "internalType": "address",
          "name": "src",
          "type": "address"
        }
      ],
      "name": "balanceOf",
      "outputs": [
        {
          "internalType": "uint256",
          "name": "",
          "type": "uint256"
        }
      ],
      "stateMutability": "view",
      "type": "function",
      "constant": true
    },
    {
      "inputs": [],
      "name": "decimals",
      "outputs": [
        {
          "internalType": "uint8",
          "name": "",
          "type": "uint8"
        }
      ],
      "stateMutability": "view",
      "type": "function",
      "constant": true
    },
    {
      "inputs": [],
      "name": "locked",
      "outputs": [
        {
          "internalType": "bool",
          "name": "",
          "type": "bool"
        }
      ],
      "stateMutability": "view",
      "type": "function",
      "constant": true
    },
    {
      "inputs": [],
      "name": "name",
      "outputs": [
        {
          "internalType": "string",
          "name": "",
          "type": "string"
        }
      ],
      "stateMutability": "view",
      "type": "function",
      "constant": true
    },
    {
      "inputs": [],
      "name": "owner",
      "outputs": [
        {
          "internalType": "address",
          "name": "",
          "type": "address"
        }
      ],
      "stateMutability": "view",
      "type": "function",
      "constant": true
    },
    {
      "inputs": [
        {
          "internalType": "contract DSAuthority",
          "name": "authority_",
          "type": "address"
        }
      ],
      "name": "setAuthority",
      "outputs": [],
      "stateMutability": "nonpayable",
      "type": "function"
    },
    {
      "inputs": [
        {
          "internalType": "address",
          "name": "owner_",
          "type": "address"
        }
      ],
      "name": "setOwner",
      "outputs": [],
      "stateMutability": "nonpayable",
      "type": "function"
    },
    {
      "inputs": [],
      "name": "symbol",
      "outputs": [
        {
          "internalType": "string",
          "name": "",
          "type": "string"
        }
      ],
      "stateMutability": "view",
      "type": "function",
      "constant": true
    },
    {
      "inputs": [],
      "name": "totalSupply",
      "outputs": [
        {
          "internalType": "uint256",
          "name": "",
          "type": "uint256"
        }
      ],
      "stateMutability": "view",
      "type": "function",
      "constant": true
    },
    {
      "inputs": [
        {
          "internalType": "address",
          "name": "dst",
          "type": "address"
        },
        {
          "internalType": "uint256",
          "name": "wad",
          "type": "uint256"
        }
      ],
      "name": "transfer",
      "outputs": [
        {
          "internalType": "bool",
          "name": "",
          "type": "bool"
        }
      ],
      "stateMutability": "nonpayable",
      "type": "function"
    },
    {
      "inputs": [
        {
          "internalType": "address",
          "name": "src",
          "type": "address"
        },
        {
          "internalType": "address",
          "name": "dst",
          "type": "address"
        },
        {
          "internalType": "uint256",
          "name": "wad",
          "type": "uint256"
        }
      ],
      "name": "transferFrom",
      "outputs": [
        {
          "internalType": "bool",
          "name": "",
          "type": "bool"
        }
      ],
      "stateMutability": "nonpayable",
      "type": "function"
    },
    {
      "inputs": [
        {
          "internalType": "address",
          "name": "guy",
          "type": "address"
        },
        {
          "internalType": "uint256",
          "name": "wad",
          "type": "uint256"
        }
      ],
      "name": "mint",
      "outputs": [],
      "stateMutability": "nonpayable",
      "type": "function"
    },
    {
      "inputs": [
        {
          "internalType": "uint256",
          "name": "wad",
          "type": "uint256"
        }
      ],
      "name": "mint",
      "outputs": [],
      "stateMutability": "nonpayable",
      "type": "function"
    },
    {
      "inputs": [
        {
          "internalType": "uint256",
          "name": "wad",
          "type": "uint256"
        }
      ],
      "name": "burn",
      "outputs": [],
      "stateMutability": "nonpayable",
      "type": "function"
    },
    {
      "inputs": [
        {
          "internalType": "address",
          "name": "guy",
          "type": "address"
        },
        {
          "internalType": "uint256",
          "name": "wad",
          "type": "uint256"
        }
      ],
      "name": "burn",
      "outputs": [],
      "stateMutability": "nonpayable",
      "type": "function"
    },
    {
      "inputs": [],
      "name": "unlock",
      "outputs": [],
      "stateMutability": "nonpayable",
      "type": "function"
    }
  ],
  "bytecode": "0x60806040523480156200001157600080fd5b506040516200121f3803806200121f83398101604081905262000034916200027d565b33600081815260016020526040808220829055818055600480546001600160a01b03191684179055517fce241d7ca1f669fee44b6fc00b8eba2df3bb514eed0f6f668f8f89096e81ed949190a2825162000096906006906020860190620000f1565b508151620000ac906005906020850190620000f1565b506004805460ff909216740100000000000000000000000000000000000000000260ff60a01b1990921691909117905550506007805460ff1916600117905562000358565b828054620000ff9062000302565b90600052602060002090601f0160209004810192826200012357600085556200016e565b82601f106200013e57805160ff19168380011785556200016e565b828001600101855582156200016e579182015b828111156200016e57825182559160200191906001019062000151565b506200017c92915062000180565b5090565b5b808211156200017c576000815560010162000181565b7f4e487b7100000000000000000000000000000000000000000000000000000000600052604160045260246000fd5b600082601f830112620001d857600080fd5b81516001600160401b0380821115620001f557620001f562000197565b604051601f8301601f19908116603f0116810190828211818310171562000220576200022062000197565b816040528381526020925086838588010111156200023d57600080fd5b600091505b8382101562000261578582018301518183018401529082019062000242565b83821115620002735760008385830101525b9695505050505050565b6000806000606084860312156200029357600080fd5b83516001600160401b0380821115620002ab57600080fd5b620002b987838801620001c6565b94506020860151915080821115620002d057600080fd5b50620002df86828701620001c6565b925050604084015160ff81168114620002f757600080fd5b809150509250925092565b600181811c908216806200031757607f821691505b6020821081141562000352577f4e487b7100000000000000000000000000000000000000000000000000000000600052602260045260246000fd5b50919050565b610eb780620003686000396000f3fe608060405234801561001057600080fd5b50600436106101215760003560e01c80637a9e5e4b116100ad578063a69df4b511610071578063a69df4b514610282578063a9059cbb1461028a578063bf7e214f1461029d578063cf309012146102b0578063dd62ed3e146102bd57600080fd5b80637a9e5e4b146102165780638da5cb5b1461022957806395d89b41146102545780639dc29fac1461025c578063a0712d681461026f57600080fd5b806323b872dd116100f457806323b872dd1461018e578063313ce567146101a157806340c10f19146101c757806342966c68146101da57806370a08231146101ed57600080fd5b806306fdde0314610126578063095ea7b31461014457806313af40351461016757806318160ddd1461017c575b600080fd5b61012e6102f6565b60405161013b9190610c6b565b60405180910390f35b610157610152366004610cd5565b610384565b604051901515815260200161013b565b61017a610175366004610d01565b6103f1565b005b6000545b60405190815260200161013b565b61015761019c366004610d1e565b610476565b6004546101b590600160a01b900460ff1681565b60405160ff909116815260200161013b565b61017a6101d5366004610cd5565b6104f9565b61017a6101e8366004610d5f565b6105fb565b6101806101fb366004610d01565b6001600160a01b031660009081526001602052604090205490565b61017a610224366004610d01565b610608565b60045461023c906001600160a01b031681565b6040516001600160a01b03909116815260200161013b565b61012e610684565b61017a61026a366004610cd5565b610691565b61017a61027d366004610d5f565b61085e565b61017a61089a565b610157610298366004610cd5565b6108d8565b60035461023c906001600160a01b031681565b6007546101579060ff1681565b6101806102cb366004610d78565b6001600160a01b03918216600090815260026020908152604080832093909416825291909152205490565b6006805461030390610db1565b80601f016020809104026020016040519081016040528092919081815260200182805461032f90610db1565b801561037c5780601f106103515761010080835404028352916020019161037c565b820191906000526020600020905b81548152906001019060200180831161035f57829003601f168201915b505050505081565b3360008181526002602090815260408083206001600160a01b038716808552925280832085905551919290917f8c5be1e5ebec7d5bd14f71427d1e84f3dd0314c0f7b2291e5b200ac8c7c3b925906103df9086815260200190565b60405180910390a35060015b92915050565b610407336000356001600160e01b0319166108ec565b61042c5760405162461bcd60e51b815260040161042390610dec565b60405180910390fd5b600480546001600160a01b0319166001600160a01b0383169081179091556040517fce241d7ca1f669fee44b6fc00b8eba2df3bb514eed0f6f668f8f89096e81ed9490600090a250565b60075460009060ff16156104e65761049a336000356001600160e01b0319166108ec565b6104e65760405162461bcd60e51b815260206004820152601960248201527f636f6c6f6e792d746f6b656e2d756e617574686f7269736564000000000000006044820152606401610423565b6104f18484846109c8565b949350505050565b61050f336000356001600160e01b0319166108ec565b61052b5760405162461bcd60e51b815260040161042390610dec565b6001600160a01b03821660009081526001602052604090205461054e9082610bc0565b6001600160a01b038316600090815260016020526040812091909155546105759082610bc0565b6000556040518181526001600160a01b038316907f0f6798a560793a54c3bcfe86a93cde1e73087d944c0ea20544137d41213968859060200160405180910390a26040518181526001600160a01b038316906000907fddf252ad1be2c89b69c2b068fc378daa952ba7f163c4a11628f55a4df523b3ef9060200160405180910390a35050565b6106053382610691565b50565b61061e336000356001600160e01b0319166108ec565b61063a5760405162461bcd60e51b815260040161042390610dec565b600380546001600160a01b0319166001600160a01b0383169081179091556040517f1abebea81bfa2637f28358c371278fb15ede7ea8dd28d2e03b112ff6d936ada490600090a250565b6005805461030390610db1565b6001600160a01b0382163314610767576001600160a01b03821660009081526002602090815260408083203384529091529020548111156107145760405162461bcd60e51b815260206004820152601e60248201527f64732d746f6b656e2d696e73756666696369656e742d617070726f76616c00006044820152606401610423565b6001600160a01b03821660009081526002602090815260408083203384529091529020546107429082610c15565b6001600160a01b03831660009081526002602090815260408083203384529091529020555b6001600160a01b0382166000908152600160205260409020548111156107cf5760405162461bcd60e51b815260206004820152601d60248201527f64732d746f6b656e2d696e73756666696369656e742d62616c616e63650000006044820152606401610423565b6001600160a01b0382166000908152600160205260409020546107f29082610c15565b6001600160a01b038316600090815260016020526040812091909155546108199082610c15565b6000556040518181526001600160a01b038316907fcc16f5dbb4873280815c1ee09dbd06736cffcc184412cf7a71a0fdb75d397ca59060200160405180910390a25050565b610874336000356001600160e01b0319166108ec565b6108905760405162461bcd60e51b815260040161042390610dec565b61060533826104f9565b6108b0336000356001600160e01b0319166108ec565b6108cc5760405162461bcd60e51b815260040161042390610dec565b6007805460ff19169055565b60006108e5338484610476565b9392505050565b60006001600160a01b038316301415610907575060016103eb565b6004546001600160a01b0384811691161415610925575060016103eb565b6003546001600160a01b031661093d575060006103eb565b60035460405163b700961360e01b81526001600160a01b0385811660048301523060248301526001600160e01b0319851660448301529091169063b700961390606401602060405180830381865afa15801561099d573d6000803e3d6000fd5b505050506040513d601f19601f820116820180604052508101906109c19190610e1a565b90506103eb565b60006001600160a01b0384163314610aa0576001600160a01b0384166000908152600260209081526040808320338452909152902054821115610a4d5760405162461bcd60e51b815260206004820152601e60248201527f64732d746f6b656e2d696e73756666696369656e742d617070726f76616c00006044820152606401610423565b6001600160a01b0384166000908152600260209081526040808320338452909152902054610a7b9083610c15565b6001600160a01b03851660009081526002602090815260408083203384529091529020555b6001600160a01b038416600090815260016020526040902054821115610b085760405162461bcd60e51b815260206004820152601d60248201527f64732d746f6b656e2d696e73756666696369656e742d62616c616e63650000006044820152606401610423565b6001600160a01b038416600090815260016020526040902054610b2b9083610c15565b6001600160a01b038086166000908152600160205260408082209390935590851681522054610b5a9083610bc0565b6001600160a01b0380851660008181526001602052604090819020939093559151908616907fddf252ad1be2c89b69c2b068fc378daa952ba7f163c4a11628f55a4df523b3ef90610bae9086815260200190565b60405180910390a35060019392505050565b600082610bcd8382610e52565b91508110156103eb5760405162461bcd60e51b815260206004820152601460248201527364732d6d6174682d6164642d6f766572666c6f7760601b6044820152606401610423565b600082610c228382610e6a565b91508111156103eb5760405162461bcd60e51b815260206004820152601560248201527464732d6d6174682d7375622d756e646572666c6f7760581b6044820152606401610423565b600060208083528351808285015260005b81811015610c9857858101830151858201604001528201610c7c565b81811115610caa576000604083870101525b50601f01601f1916929092016040019392505050565b6001600160a01b038116811461060557600080fd5b60008060408385031215610ce857600080fd5b8235610cf381610cc0565b946020939093013593505050565b600060208284031215610d1357600080fd5b81356108e581610cc0565b600080600060608486031215610d3357600080fd5b8335610d3e81610cc0565b92506020840135610d4e81610cc0565b929592945050506040919091013590565b600060208284031215610d7157600080fd5b5035919050565b60008060408385031215610d8b57600080fd5b8235610d9681610cc0565b91506020830135610da681610cc0565b809150509250929050565b600181811c90821680610dc557607f821691505b60208210811415610de657634e487b7160e01b600052602260045260246000fd5b50919050565b602080825260149082015273191ccb585d5d1a0b5d5b985d5d1a1bdc9a5e995960621b604082015260600190565b600060208284031215610e2c57600080fd5b815180151581146108e557600080fd5b634e487b7160e01b600052601160045260246000fd5b60008219821115610e6557610e65610e3c565b500190565b600082821015610e7c57610e7c610e3c565b50039056fea26469706673582212206d031c08d3dc50391de2919a4d78bbfddc7de7e1116d9e67b413e65ec2fb40cd64736f6c634300080a0033",
  "immutableReferences": {},
  "source": "/*\n  This file is part of The Colony Network.\n\n  The Colony Network is free software: you can redistribute it and/or modify\n  it under the terms of the GNU General Public License as published by\n  the Free Software Foundation, either version 3 of the License, or\n  (at your option) any later version.\n\n  The Colony Network is distributed in the hope that it will be useful,\n  but WITHOUT ANY WARRANTY; without even the implied warranty of\n  MERCHANTABILITY or FITNESS FOR A PARTICULAR PURPOSE.  See the\n  GNU General Public License for more details.\n\n  You should have received a copy of the GNU General Public License\n  along with The Colony Network. If not, see <http://www.gnu.org/licenses/>.\n*/\n\npragma solidity 0.8.10;\n\nimport \"../lib/dappsys/auth.sol\";\nimport \"../lib/dappsys/base.sol\";\nimport \"./ERC20Extended.sol\";\n\n\ncontract Token is DSTokenBase(0), DSAuth, ERC20Extended {\n  uint8 public decimals;\n  string public symbol;\n  string public name;\n\n  bool public locked;\n\n  modifier unlocked {\n    if (locked) {\n      require(isAuthorized(msg.sender, msg.sig), \"colony-token-unauthorised\");\n    }\n    _;\n  }\n\n  constructor(string memory _name, string memory _symbol, uint8 _decimals) public {\n    name = _name;\n    symbol = _symbol;\n    decimals = _decimals;\n    locked = true;\n  }\n\n  function transferFrom(address src, address dst, uint wad) public\n  override(DSTokenBase, ERC20)\n  unlocked\n  returns (bool)\n  {\n    return super.transferFrom(src, dst, wad);\n  }\n\n  function mint(uint wad) public override auth {\n    mint(msg.sender, wad);\n  }\n\n  function burn(uint wad) public override {\n    burn(msg.sender, wad);\n  }\n\n  function mint(address guy, uint wad) public override auth {\n    _balances[guy] = add(_balances[guy], wad);\n    _supply = add(_supply, wad);\n    emit Mint(guy, wad);\n    emit Transfer(address(0x0), guy, wad);\n  }\n\n  function burn(address guy, uint wad) public override {\n    if (guy != msg.sender) {\n      require(_approvals[guy][msg.sender] >= wad, \"ds-token-insufficient-approval\");\n      _approvals[guy][msg.sender] = sub(_approvals[guy][msg.sender], wad);\n    }\n\n    require(_balances[guy] >= wad, \"ds-token-insufficient-balance\");\n    _balances[guy] = sub(_balances[guy], wad);\n    _supply = sub(_supply, wad);\n    emit Burn(guy, wad);\n  }\n\n  function unlock() public\n  auth\n  {\n    locked = false;\n  }\n}\n",
  "sourcePath": "/Users/kronosapiens/code/colony/colonyToken/contracts/Token.sol",
  "compiler": {
    "name": "solc",
    "version": "0.8.10+commit.fc410830.Linux.g++"
  },
  "schemaVersion": "3.4.3",
  "updatedAt": "2021-12-05T17:58:42.248Z",
  "networkType": "ethereum",
  "devdoc": {
    "kind": "dev",
    "methods": {},
    "version": 1
  },
  "userdoc": {
    "kind": "user",
    "methods": {},
    "version": 1
  }
}