{
  "contractName": "TokenAuthority",
  "abi": [
    {
      "constant": true,
      "inputs": [],
      "name": "token",
      "outputs": [
        {
          "name": "",
          "type": "address"
        }
      ],
      "payable": false,
      "stateMutability": "view",
      "type": "function"
    },
    {
      "inputs": [
        {
          "name": "_token",
          "type": "address"
        },
        {
          "name": "_colonyNetwork",
          "type": "address"
        },
        {
          "name": "_metaColony",
          "type": "address"
        },
        {
          "name": "_tokenLocking",
          "type": "address"
        },
        {
          "name": "_vesting",
          "type": "address"
        },
        {
          "name": "miners",
          "type": "address[]"
        },
        {
          "name": "_regulator",
          "type": "address"
        }
      ],
      "payable": false,
      "stateMutability": "nonpayable",
      "type": "constructor"
    },
    {
      "constant": true,
      "inputs": [
        {
          "name": "src",
          "type": "address"
        },
        {
          "name": "dst",
          "type": "address"
        },
        {
          "name": "sig",
          "type": "bytes4"
        }
      ],
      "name": "canCall",
      "outputs": [
        {
          "name": "",
          "type": "bool"
        }
      ],
      "payable": false,
      "stateMutability": "view",
      "type": "function"
    }
  ],
  "bytecode": "0x608060405234801561001057600080fd5b506040516107313803806107318339810180604052810190808051906020019092919080519060200190929190805190602001909291908051906020019092919080519060200190929190805182019291906020018051906020019092919050505060008060008060008b6000806101000a815481600160a060020a030219169083600160a060020a0316021790555060405180807f7472616e7366657228616464726573732c75696e74323536290000000000000081525060190190506040518091039020945060405180807f7472616e7366657246726f6d28616464726573732c616464726573732c75696e81526020017f743235362900000000000000000000000000000000000000000000000000000081525060250190506040518091039020935060405180807f6d696e742875696e743235362900000000000000000000000000000000000000815250600d0190506040518091039020925060018060008d600160a060020a0316600160a060020a03168152602001908152602001600020600087600160e060020a031916600160e060020a031916815260200190815260200160002060006101000a81548160ff02191690831515021790555060018060008d600160a060020a0316600160a060020a03168152602001908152602001600020600086600160e060020a031916600160e060020a031916815260200190815260200160002060006101000a81548160ff02191690831515021790555060018060008c600160a060020a0316600160a060020a03168152602001908152602001600020600087600160e060020a031916600160e060020a031916815260200190815260200160002060006101000a81548160ff02191690831515021790555060018060008c600160a060020a0316600160a060020a03168152602001908152602001600020600085600160e060020a031916600160e060020a031916815260200190815260200160002060006101000a81548160ff02191690831515021790555060018060008b600160a060020a0316600160a060020a03168152602001908152602001600020600087600160e060020a031916600160e060020a031916815260200190815260200160002060006101000a81548160ff02191690831515021790555060018060008b600160a060020a0316600160a060020a03168152602001908152602001600020600086600160e060020a031916600160e060020a031916815260200190815260200160002060006101000a81548160ff02191690831515021790555060018060008a600160a060020a0316600160a060020a03168152602001908152602001600020600087600160e060020a031916600160e060020a031916815260200190815260200160002060006101000a81548160ff02191690831515021790555060018060008a600160a060020a0316600160a060020a03168152602001908152602001600020600086600160e060020a031916600160e060020a031916815260200190815260200160002060006101000a81548160ff021916908315150217905550600091505b86518210156104fd57868281518110151561049a57fe5b6020908102909101810151600160a060020a0381166000908152600180845260408083207fffffffff000000000000000000000000000000000000000000000000000000008b168452909452929020805460ff1916831790559201919050610483565b505050600160a060020a0390921660009081526001602081815260408084207fffffffff000000000000000000000000000000000000000000000000000000009096168452949052929020805460ff1916909217909155505050505050506101c78061056a6000396000f30060806040526004361061004b5763ffffffff7c0100000000000000000000000000000000000000000000000000000000600035041663b70096138114610050578063fc0c546a146100ba575b600080fd5b34801561005c57600080fd5b506100a673ffffffffffffffffffffffffffffffffffffffff600435811690602435167bffffffffffffffffffffffffffffffffffffffffffffffffffffffff19604435166100f8565b604080519115158252519081900360200190f35b3480156100c657600080fd5b506100cf61017f565b6040805173ffffffffffffffffffffffffffffffffffffffff9092168252519081900360200190f35b6000805473ffffffffffffffffffffffffffffffffffffffff84811691161461012357506000610178565b5073ffffffffffffffffffffffffffffffffffffffff831660009081526001602090815260408083207bffffffffffffffffffffffffffffffffffffffffffffffffffffffff198516845290915290205460ff165b9392505050565b60005473ffffffffffffffffffffffffffffffffffffffff16815600a165627a7a72305820c84ca178abd404fbdeaaa262300ed87649fc3eee134c9d94972cb81e42efb5500029",
  "source": "/*\n  This file is part of The Colony Network.\n\n  The Colony Network is free software: you can redistribute it and/or modify\n  it under the terms of the GNU General Public License as published by\n  the Free Software Foundation, either version 3 of the License, or\n  (at your option) any later version.\n\n  The Colony Network is distributed in the hope that it will be useful,\n  but WITHOUT ANY WARRANTY; without even the implied warranty of\n  MERCHANTABILITY or FITNESS FOR A PARTICULAR PURPOSE.  See the\n  GNU General Public License for more details.\n\n  You should have received a copy of the GNU General Public License\n  along with The Colony Network. If not, see <http://www.gnu.org/licenses/>.\n*/\n\npragma solidity ^0.4.23;\n\nimport \"../lib/dappsys/auth.sol\";\n\n\ncontract TokenAuthority is DSAuthority {\n  address public token;\n  mapping(address => mapping(bytes4 => bool)) authorizations;\n\n  constructor(\n    address _token,\n    address _colonyNetwork,\n    address _metaColony,\n    address _tokenLocking,\n    address _vesting,\n    address[] miners,\n    address _regulator) public {\n    token = _token;\n    bytes4 transferSig = bytes4(keccak256(\"transfer(address,uint256)\"));\n    bytes4 transferFromSig = bytes4(keccak256(\"transferFrom(address,address,uint256)\"));\n    bytes4 mintSig = bytes4(keccak256(\"mint(uint256)\"));\n\n    authorizations[_colonyNetwork][transferSig] = true;      // Used in IColonyNetworkMining.rewardStakers\n    authorizations[_colonyNetwork][transferFromSig] = true;\n\n    authorizations[_metaColony][transferSig] = true;        // Used in IColony: bootstrapColony, mintTokensForColonyNetwork,\n                                                            // claimPayout and claimRewardPayout\n    authorizations[_metaColony][mintSig] = true;            // Used in IColony.mintTokensForColonyNetwork\n\n    authorizations[_tokenLocking][transferSig] = true;      // Used in ITokenLocking.withdraw\n    authorizations[_tokenLocking][transferFromSig] = true;  // Used in ITokenLocking.deposit\n\n    authorizations[_vesting][transferSig] = true;\n    authorizations[_vesting][transferFromSig] = true;\n\n    // Allow passing in of multiple reputation miner accounts although potentially one will be used in production\n    for (uint i = 0; i < miners.length; i++) {\n      address miner = miners[i];\n      authorizations[miner][transferSig] = true;\n    }\n\n    authorizations[_regulator][transferFromSig] = true;\n  }\n\n  function canCall(address src, address dst, bytes4 sig) public view returns (bool) {\n    if (dst != token) {\n      return false;\n    }\n\n    return authorizations[src][sig];\n  }\n}\n",
  "sourcePath": "/Users/Elena/colonyToken/contracts/TokenAuthority.sol",
  "compiler": {
    "name": "solc",
    "version": "0.4.25+commit.59dbf8f1.Emscripten.clang"
  },
  "schemaVersion": "3.0.0-beta.1",
  "updatedAt": "2019-03-15T11:07:46.502Z"
}