{
  "contractName": "Vesting",
  "abi": [
    {
      "constant": true,
      "inputs": [],
      "name": "colonyMultiSig",
      "outputs": [
        {
          "name": "",
          "type": "address"
        }
      ],
      "payable": false,
      "stateMutability": "view",
      "type": "function",
      "signature": "0x08ec6164"
    },
    {
      "constant": true,
      "inputs": [
        {
          "name": "",
          "type": "address"
        }
      ],
      "name": "tokenGrants",
      "outputs": [
        {
          "name": "startTime",
          "type": "uint256"
        },
        {
          "name": "amount",
          "type": "uint128"
        },
        {
          "name": "vestingDuration",
          "type": "uint16"
        },
        {
          "name": "vestingCliff",
          "type": "uint16"
        },
        {
          "name": "monthsClaimed",
          "type": "uint16"
        },
        {
          "name": "totalClaimed",
          "type": "uint128"
        }
      ],
      "payable": false,
      "stateMutability": "view",
      "type": "function",
      "signature": "0xb81a4d8f"
    },
    {
      "constant": true,
      "inputs": [],
      "name": "token",
      "outputs": [
        {
          "name": "",
          "type": "address"
        }
      ],
      "payable": false,
      "stateMutability": "view",
      "type": "function",
      "signature": "0xfc0c546a"
    },
    {
      "inputs": [
        {
          "name": "_token",
          "type": "address"
        },
        {
          "name": "_colonyMultiSig",
          "type": "address"
        }
      ],
      "payable": false,
      "stateMutability": "nonpayable",
      "type": "constructor",
      "signature": "constructor"
    },
    {
      "anonymous": false,
      "inputs": [
        {
          "indexed": false,
          "name": "recipient",
          "type": "address"
        },
        {
          "indexed": false,
          "name": "startTime",
          "type": "uint256"
        },
        {
          "indexed": false,
          "name": "amount",
          "type": "uint128"
        },
        {
          "indexed": false,
          "name": "vestingDuration",
          "type": "uint16"
        },
        {
          "indexed": false,
          "name": "vestingCliff",
          "type": "uint16"
        }
      ],
      "name": "GrantAdded",
      "type": "event",
      "signature": "0x4995f92ede8051f62ebd282d2097795d0569de63589fb49da0064f43cb47c8af"
    },
    {
      "anonymous": false,
      "inputs": [
        {
          "indexed": false,
          "name": "recipient",
          "type": "address"
        },
        {
          "indexed": false,
          "name": "amountVested",
          "type": "uint128"
        },
        {
          "indexed": false,
          "name": "amountNotVested",
          "type": "uint128"
        }
      ],
      "name": "GrantRemoved",
      "type": "event",
      "signature": "0x340f6477ea48f04683f1f869a730e23ed8123e47f682b448d93174501e7aefdb"
    },
    {
      "anonymous": false,
      "inputs": [
        {
          "indexed": false,
          "name": "recipient",
          "type": "address"
        },
        {
          "indexed": false,
          "name": "amountClaimed",
          "type": "uint128"
        }
      ],
      "name": "GrantTokensClaimed",
      "type": "event",
      "signature": "0x2962855c62781b7b45ee6a244c72c6b1eaa1b883b9bbbe60fcff273aa480c8d2"
    },
    {
      "constant": false,
      "inputs": [
        {
          "name": "_recipient",
          "type": "address"
        },
        {
          "name": "_startTime",
          "type": "uint256"
        },
        {
          "name": "_amount",
          "type": "uint128"
        },
        {
          "name": "_vestingDuration",
          "type": "uint16"
        },
        {
          "name": "_vestingCliff",
          "type": "uint16"
        }
      ],
      "name": "addTokenGrant",
      "outputs": [],
      "payable": false,
      "stateMutability": "nonpayable",
      "type": "function",
      "signature": "0xda09118e"
    },
    {
      "constant": false,
      "inputs": [
        {
          "name": "_recipient",
          "type": "address"
        }
      ],
      "name": "removeTokenGrant",
      "outputs": [],
      "payable": false,
      "stateMutability": "nonpayable",
      "type": "function",
      "signature": "0x3023641d"
    },
    {
      "constant": false,
      "inputs": [],
      "name": "claimVestedTokens",
      "outputs": [],
      "payable": false,
      "stateMutability": "nonpayable",
      "type": "function",
      "signature": "0xe74f3fbb"
    },
    {
      "constant": true,
      "inputs": [
        {
          "name": "_recipient",
          "type": "address"
        }
      ],
      "name": "calculateGrantClaim",
      "outputs": [
        {
          "name": "",
          "type": "uint16"
        },
        {
          "name": "",
          "type": "uint128"
        }
      ],
      "payable": false,
      "stateMutability": "view",
      "type": "function",
      "signature": "0xfd75b8d4"
    }
  ],
  "bytecode": "0x608060405234801561001057600080fd5b506040516040806111be8339810180604052604081101561003057600080fd5b50805160209091015181600160a060020a0381166100af57604080517f08c379a000000000000000000000000000000000000000000000000000000000815260206004820152601960248201527f636f6c6f6e792d746f6b656e2d7a65726f2d6164647265737300000000000000604482015290519081900360640190fd5b81600160a060020a03811661012557604080517f08c379a000000000000000000000000000000000000000000000000000000000815260206004820152601960248201527f636f6c6f6e792d746f6b656e2d7a65726f2d6164647265737300000000000000604482015290519081900360640190fd5b505060008054600160a060020a03938416600160a060020a0319918216179091556001805492909316911617905561105c806101626000396000f3fe608060405234801561001057600080fd5b506004361061009a576000357c010000000000000000000000000000000000000000000000000000000090048063da09118e11610078578063da09118e14610153578063e74f3fbb146101a0578063fc0c546a146101a8578063fd75b8d4146101b05761009a565b806308ec61641461009f5780633023641d146100c3578063b81a4d8f146100eb575b600080fd5b6100a76101fc565b60408051600160a060020a039092168252519081900360200190f35b6100e9600480360360208110156100d957600080fd5b5035600160a060020a031661020b565b005b6101116004803603602081101561010157600080fd5b5035600160a060020a0316610531565b604080519687526001608060020a03958616602088015261ffff94851687820152928416606087015292166080850152911660a0830152519081900360c00190f35b6100e9600480360360a081101561016957600080fd5b50600160a060020a03813516906020810135906001608060020a036040820135169061ffff606082013581169160800135166105ae565b6100e9610a30565b6100a7610c87565b6101d6600480360360208110156101c657600080fd5b5035600160a060020a0316610c96565b6040805161ffff90931683526001608060020a0390911660208301528051918290030190f35b600154600160a060020a031681565b600154600160a060020a0316331461026d576040805160e560020a62461bcd02815260206004820181905260248201527f636f6c6f6e792d746f6b656e2d6e6f742d636f6c6f6e792d6d756c7469736967604482015290519081900360640190fd5b600160a060020a0381166000908152600260205260408120908061029084610c96565b600185015460028601549294509092506000916102cc916102bd916001608060020a039182169116610e0b565b836001608060020a0316610e0b565b60008054604080517fa9059cbb000000000000000000000000000000000000000000000000000000008152600160a060020a038a811660048301526001608060020a0388166024830152915194955091169263a9059cbb92604480840193602093929083900390910190829087803b15801561034757600080fd5b505af115801561035b573d6000803e3d6000fd5b505050506040513d602081101561037157600080fd5b50516103b15760405160e560020a62461bcd028152600401808060200182810382526026815260200180610fbf6026913960400191505060405180910390fd5b60008054600154604080517fa9059cbb000000000000000000000000000000000000000000000000000000008152600160a060020a0392831660048201526001608060020a03861660248201529051919092169263a9059cbb92604480820193602093909283900390910190829087803b15801561042e57600080fd5b505af1158015610442573d6000803e3d6000fd5b505050506040513d602081101561045857600080fd5b50516104985760405160e560020a62461bcd02815260040180806020018281038252602c815260200180610f6c602c913960400191505060405180910390fd5b6000845560018401805475ffffffffffffffffffffffffffffffffffffffffffff191690556002840180546fffffffffffffffffffffffffffffffff1916905560408051600160a060020a03871681526001608060020a03848116602083015283168183015290517f340f6477ea48f04683f1f869a730e23ed8123e47f682b448d93174501e7aefdb9181900360600190a15050505050565b60026020819052600091825260409091208054600182015491909201546001608060020a038083169261ffff70010000000000000000000000000000000082048116937201000000000000000000000000000000000000830482169374010000000000000000000000000000000000000000909304909116911686565b600154600160a060020a03163314610610576040805160e560020a62461bcd02815260206004820181905260248201527f636f6c6f6e792d746f6b656e2d6e6f742d636f6c6f6e792d6d756c7469736967604482015290519081900360640190fd5b600160a060020a038516600090815260026020526040902054859015610680576040805160e560020a62461bcd02815260206004820152601e60248201527f636f6c6f6e792d746f6b656e2d757365722d6772616e742d6578697374730000604482015290519081900360640190fd5b60008261ffff16116106dc576040805160e560020a62461bcd02815260206004820152601e60248201527f636f6f6e792d746f6b656e2d7a65726f2d76657374696e672d636c6966660000604482015290519081900360640190fd5b8161ffff168361ffff16116107255760405160e560020a62461bcd028152600401808060200182810382526027815260200180610f986027913960400191505060405180910390fd5b60008361ffff16856001608060020a03168161073d57fe5b046001608060020a031690506000811161078b5760405160e560020a62461bcd028152600401808060200182810382526029815260200180610fe56029913960400191505060405180910390fd5b60008054600154604080517f23b872dd000000000000000000000000000000000000000000000000000000008152600160a060020a0392831660048201523060248201526001608060020a038a166044820152905191909216926323b872dd92606480820193602093909283900390910190829087803b15801561080e57600080fd5b505af1158015610822573d6000803e3d6000fd5b505050506040513d602081101561083857600080fd5b506108439050610f36565b6040518060c001604052808860001461085c578861085e565b425b8152602001876001608060020a031681526020018661ffff1681526020018561ffff168152602001600061ffff16815260200160006001608060020a0316815250905080600260008a600160a060020a0316600160a060020a031681526020019081526020016000206000820151816000015560208201518160010160006101000a8154816001608060020a0302191690836001608060020a0316021790555060408201518160010160106101000a81548161ffff021916908361ffff16021790555060608201518160010160126101000a81548161ffff021916908361ffff16021790555060808201518160010160146101000a81548161ffff021916908361ffff16021790555060a08201518160020160006101000a8154816001608060020a0302191690836001608060020a031602179055509050507f4995f92ede8051f62ebd282d2097795d0569de63589fb49da0064f43cb47c8af8882600001518888886040518086600160a060020a0316600160a060020a03168152602001858152602001846001608060020a03166001608060020a031681526020018361ffff1661ffff1681526020018261ffff1661ffff1681526020019550505050505060405180910390a15050505050505050565b600080610a3c33610c96565b90925090506001608060020a038116610a9f576040805160e560020a62461bcd02815260206004820152601f60248201527f636f6c6f6e792d746f6b656e2d7a65726f2d616d6f756e742d76657374656400604482015290519081900360640190fd5b3360009081526002602052604090206001810154610add9061ffff740100000000000000000000000000000000000000009091048116908516610e6c565b60018201805461ffff92909216740100000000000000000000000000000000000000000275ffff0000000000000000000000000000000000000000199092169190911790556002810154610b3e906001608060020a03908116908416610e6c565b6002820180546fffffffffffffffffffffffffffffffff19166001608060020a0392831617905560008054604080517fa9059cbb000000000000000000000000000000000000000000000000000000008152336004820152938616602485015251600160a060020a039091169263a9059cbb9260448083019360209390929083900390910190829087803b158015610bd557600080fd5b505af1158015610be9573d6000803e3d6000fd5b505050506040513d6020811015610bff57600080fd5b5051610c3f5760405160e560020a62461bcd02815260040180806020018281038252602381526020018061100e6023913960400191505060405180910390fd5b604080513381526001608060020a038416602082015281517f2962855c62781b7b45ee6a244c72c6b1eaa1b883b9bbbe60fcff273aa480c8d2929181900390910190a1505050565b600054600160a060020a031681565b600160a060020a03811660009081526002602052604081208054829190421015610cc7575060009150819050610e06565b6000610cd7428360000154610e0b565b6001830154909150622819a08204907201000000000000000000000000000000000000900461ffff16811015610d17575060009350839250610e06915050565b6001830154700100000000000000000000000000000000900461ffff168110610d76575050600281015460019091015461ffff70010000000000000000000000000000000082041693506001608060020a039182169116039050610e06565b6001830154600090610da590839074010000000000000000000000000000000000000000900461ffff16610e0b565b600185015490915060009061ffff700100000000000000000000000000000000820416906001608060020a031681610dd957fe5b046001608060020a031690506000610df58361ffff1683610ec7565b929750919550610e06945050505050565b915091565b80820382811115610e66576040805160e560020a62461bcd02815260206004820152601560248201527f64732d6d6174682d7375622d756e646572666c6f770000000000000000000000604482015290519081900360640190fd5b92915050565b80820182811015610e66576040805160e560020a62461bcd02815260206004820152601460248201527f64732d6d6174682d6164642d6f766572666c6f77000000000000000000000000604482015290519081900360640190fd5b6000811580610ee257505080820282828281610edf57fe5b04145b610e66576040805160e560020a62461bcd02815260206004820152601460248201527f64732d6d6174682d6d756c2d6f766572666c6f77000000000000000000000000604482015290519081900360640190fd5b6040805160c081018252600080825260208201819052918101829052606081018290526080810182905260a08101919091529056fe636f6c6f6e792d746f6b656e2d636f6c6f6e792d6d756c74697369672d7472616e736665722d6661696c6564636f6c6f6e792d746f6b656e2d636c6966662d6c6f6e6765722d7468616e2d6475726174696f6e636f6c6f6e792d746f6b656e2d726563697069656e742d7472616e736665722d6661696c6564636f6c6f6e792d746f6b656e2d7a65726f2d616d6f756e742d7665737465642d7065722d6d6f6e7468636f6c6f6e792d746f6b656e2d73656e6465722d7472616e736665722d6661696c6564a165627a7a7230582077ec5042e8d57c2b5f4fd4ca9013d8de73072eb8ec4ac6311476a27f269e5ba30029",
  "source": "/*\n  This file is part of The Colony Network.\n\n  The Colony Network is free software: you can redistribute it and/or modify\n  it under the terms of the GNU General Public License as published by\n  the Free Software Foundation, either version 3 of the License, or\n  (at your option) any later version.\n\n  The Colony Network is distributed in the hope that it will be useful,\n  but WITHOUT ANY WARRANTY; without even the implied warranty of\n  MERCHANTABILITY or FITNESS FOR A PARTICULAR PURPOSE.  See the\n  GNU General Public License for more details.\n\n  You should have received a copy of the GNU General Public License\n  along with The Colony Network. If not, see <http://www.gnu.org/licenses/>.\n*/\n\npragma solidity >=0.5.3;\n\nimport \"./Token.sol\";\nimport \"../lib/dappsys/math.sol\";\nimport \"../lib/dappsys/erc20.sol\";\n\n\ncontract Vesting is DSMath {\n  Token public token;\n  address public colonyMultiSig;\n\n  uint constant internal SECONDS_PER_MONTH = 2628000;\n\n  event GrantAdded(address recipient, uint256 startTime, uint128 amount, uint16 vestingDuration, uint16 vestingCliff);\n  event GrantRemoved(address recipient, uint128 amountVested, uint128 amountNotVested);\n  event GrantTokensClaimed(address recipient, uint128 amountClaimed);\n\n  struct Grant {\n    uint startTime;\n    uint128 amount;\n    uint16 vestingDuration;\n    uint16 vestingCliff;\n    uint16 monthsClaimed;\n    uint128 totalClaimed;\n  }\n  mapping (address => Grant) public tokenGrants;\n\n  modifier onlyColonyMultiSig {\n    require(msg.sender == colonyMultiSig, \"colony-token-not-colony-multisig\");\n    _;\n  }\n\n  modifier nonZeroAddress(address x) {\n    require(x != address(0), \"colony-token-zero-address\");\n    _;\n  }\n\n  modifier noGrantExistsForUser(address _user) {\n    require(tokenGrants[_user].startTime == 0, \"colony-token-user-grant-exists\");\n    _;\n  }\n\n  constructor(address _token, address _colonyMultiSig) public\n  nonZeroAddress(_token)\n  nonZeroAddress(_colonyMultiSig)\n  {\n    token = Token(_token);\n    colonyMultiSig = _colonyMultiSig;\n  }\n\n  /// @notice Add a new token grant for user `_recipient`. Only one grant per user is allowed\n  /// The amount of CLNY tokens here need to be preapproved for transfer by this `Vesting` contract before this call\n  /// Secured to the Colony MultiSig only\n  /// @param _recipient Address of the token grant recipient entitled to claim the grant funds\n  /// @param _startTime Grant start time as seconds since unix epoch\n  /// Allows backdating grants by passing time in the past. If `0` is passed here current blocktime is used. \n  /// @param _amount Total number of tokens in grant\n  /// @param _vestingDuration Number of months of the grant's duration\n  /// @param _vestingCliff Number of months of the grant's vesting cliff\n  function addTokenGrant(address _recipient, uint256 _startTime, uint128 _amount, uint16 _vestingDuration, uint16 _vestingCliff) public \n  onlyColonyMultiSig\n  noGrantExistsForUser(_recipient)\n  {\n    require(_vestingCliff > 0, \"coony-token-zero-vesting-cliff\");\n    require(_vestingDuration > _vestingCliff, \"colony-token-cliff-longer-than-duration\");\n    uint amountVestedPerMonth = _amount / _vestingDuration;\n    require(amountVestedPerMonth > 0, \"colony-token-zero-amount-vested-per-month\");\n\n    // Transfer the grant tokens under the control of the vesting contract\n    token.transferFrom(colonyMultiSig, address(this), _amount);\n\n    Grant memory grant = Grant({\n      startTime: _startTime == 0 ? now : _startTime,\n      amount: _amount,\n      vestingDuration: _vestingDuration,\n      vestingCliff: _vestingCliff,\n      monthsClaimed: 0,\n      totalClaimed: 0\n    });\n\n    tokenGrants[_recipient] = grant;\n    emit GrantAdded(_recipient, grant.startTime, _amount, _vestingDuration, _vestingCliff);\n  }\n\n  /// @notice Terminate token grant transferring all vested tokens to the `_recipient`\n  /// and returning all non-vested tokens to the Colony MultiSig\n  /// Secured to the Colony MultiSig only\n  /// @param _recipient Address of the token grant recipient\n  function removeTokenGrant(address _recipient) public \n  onlyColonyMultiSig\n  {\n    Grant storage tokenGrant = tokenGrants[_recipient];\n    uint16 monthsVested;\n    uint128 amountVested;\n    (monthsVested, amountVested) = calculateGrantClaim(_recipient);\n    uint128 amountNotVested = uint128(sub(sub(tokenGrant.amount, tokenGrant.totalClaimed), amountVested));\n\n    require(token.transfer(_recipient, amountVested), \"colony-token-recipient-transfer-failed\");\n    require(token.transfer(colonyMultiSig, amountNotVested), \"colony-token-colony-multisig-transfer-failed\");\n\n    tokenGrant.startTime = 0;\n    tokenGrant.amount = 0;\n    tokenGrant.vestingDuration = 0;\n    tokenGrant.vestingCliff = 0;\n    tokenGrant.monthsClaimed = 0;\n    tokenGrant.totalClaimed = 0;\n\n    emit GrantRemoved(_recipient, amountVested, amountNotVested);\n  }\n\n  /// @notice Allows a grant recipient to claim their vested tokens. Errors if no tokens have vested\n  /// It is advised recipients check they are entitled to claim via `calculateGrantClaim` before calling this\n  function claimVestedTokens() public {\n    uint16 monthsVested;\n    uint128 amountVested;\n    (monthsVested, amountVested) = calculateGrantClaim(msg.sender);\n    require(amountVested > 0, \"colony-token-zero-amount-vested\");\n\n    Grant storage tokenGrant = tokenGrants[msg.sender];\n    tokenGrant.monthsClaimed = uint16(add(tokenGrant.monthsClaimed, monthsVested));\n    tokenGrant.totalClaimed = uint128(add(tokenGrant.totalClaimed, amountVested));\n    \n    require(token.transfer(msg.sender, amountVested), \"colony-token-sender-transfer-failed\");\n    emit GrantTokensClaimed(msg.sender, amountVested);\n  }\n\n  /// @notice Calculate the vested and unclaimed months and tokens available for `_recepient` to claim\n  /// Due to rounding errors once grant duration is reached, returns the entire left grant amount\n  /// Returns (0, 0) if cliff has not been reached\n  function calculateGrantClaim(address _recipient) public view returns (uint16, uint128) {\n    Grant storage tokenGrant = tokenGrants[_recipient];\n\n    // For grants created with a future start date, that hasn't been reached, return 0, 0\n    if (now < tokenGrant.startTime) {\n      return (0, 0);\n    }\n\n    // Check cliff was reached\n    uint elapsedTime = sub(now, tokenGrant.startTime);\n    uint elapsedMonths = elapsedTime / SECONDS_PER_MONTH;\n    \n    if (elapsedMonths < tokenGrant.vestingCliff) {\n      return (0, 0);\n    }\n\n    // If over vesting duration, all tokens vested\n    if (elapsedMonths >= tokenGrant.vestingDuration) {\n      uint128 remainingGrant = tokenGrant.amount - tokenGrant.totalClaimed;\n      return (tokenGrant.vestingDuration, remainingGrant);\n    } else {\n      uint16 monthsVested = uint16(sub(elapsedMonths, tokenGrant.monthsClaimed));\n      uint amountVestedPerMonth = tokenGrant.amount / tokenGrant.vestingDuration;\n      uint128 amountVested = uint128(mul(monthsVested, amountVestedPerMonth));\n      return (monthsVested, amountVested);\n    }\n  }\n}\n",
  "sourcePath": "/Users/Elena/colonyToken/contracts/Vesting.sol",
  "compiler": {
    "name": "solc",
    "version": "0.5.6+commit.b259423e.Linux.g++"
  },
  "schemaVersion": "3.0.3",
  "updatedAt": "2019-03-20T08:56:58.732Z",
  "devdoc": {
    "methods": {
      "addTokenGrant(address,uint256,uint128,uint16,uint16)": {
        "params": {
          "_amount": "Total number of tokens in grant",
          "_recipient": "Address of the token grant recipient entitled to claim the grant funds",
          "_startTime": "Grant start time as seconds since unix epoch Allows backdating grants by passing time in the past. If `0` is passed here current blocktime is used. ",
          "_vestingCliff": "Number of months of the grant's vesting cliff",
          "_vestingDuration": "Number of months of the grant's duration"
        }
      },
      "removeTokenGrant(address)": {
        "params": {
          "_recipient": "Address of the token grant recipient"
        }
      }
    }
  },
  "userdoc": {
    "methods": {
      "addTokenGrant(address,uint256,uint128,uint16,uint16)": {
        "notice": "Add a new token grant for user `_recipient`. Only one grant per user is allowed The amount of CLNY tokens here need to be preapproved for transfer by this `Vesting` contract before this call Secured to the Colony MultiSig only"
      },
      "calculateGrantClaim(address)": {
        "notice": "Calculate the vested and unclaimed months and tokens available for `_recepient` to claim Due to rounding errors once grant duration is reached, returns the entire left grant amount Returns (0, 0) if cliff has not been reached"
      },
      "claimVestedTokens()": {
        "notice": "Allows a grant recipient to claim their vested tokens. Errors if no tokens have vested It is advised recipients check they are entitled to claim via `calculateGrantClaim` before calling this"
      },
      "removeTokenGrant(address)": {
        "notice": "Terminate token grant transferring all vested tokens to the `_recipient` and returning all non-vested tokens to the Colony MultiSig Secured to the Colony MultiSig only"
      }
    }
  }
}