{
  "contractName": "Vesting",
  "abi": [
    {
      "constant": true,
      "inputs": [],
      "name": "colonyMultiSig",
      "outputs": [
        {
          "name": "",
          "type": "address"
        }
      ],
      "payable": false,
      "stateMutability": "view",
      "type": "function"
    },
    {
      "constant": true,
      "inputs": [
        {
          "name": "",
          "type": "address"
        }
      ],
      "name": "tokenGrants",
      "outputs": [
        {
          "name": "startTime",
          "type": "uint256"
        },
        {
          "name": "amount",
          "type": "uint128"
        },
        {
          "name": "vestingDuration",
          "type": "uint16"
        },
        {
          "name": "vestingCliff",
          "type": "uint16"
        },
        {
          "name": "monthsClaimed",
          "type": "uint16"
        },
        {
          "name": "totalClaimed",
          "type": "uint128"
        }
      ],
      "payable": false,
      "stateMutability": "view",
      "type": "function"
    },
    {
      "constant": true,
      "inputs": [],
      "name": "token",
      "outputs": [
        {
          "name": "",
          "type": "address"
        }
      ],
      "payable": false,
      "stateMutability": "view",
      "type": "function"
    },
    {
      "inputs": [
        {
          "name": "_token",
          "type": "address"
        },
        {
          "name": "_colonyMultiSig",
          "type": "address"
        }
      ],
      "payable": false,
      "stateMutability": "nonpayable",
      "type": "constructor"
    },
    {
      "anonymous": false,
      "inputs": [
        {
          "indexed": false,
          "name": "recipient",
          "type": "address"
        },
        {
          "indexed": false,
          "name": "startTime",
          "type": "uint256"
        },
        {
          "indexed": false,
          "name": "amount",
          "type": "uint128"
        },
        {
          "indexed": false,
          "name": "vestingDuration",
          "type": "uint16"
        },
        {
          "indexed": false,
          "name": "vestingCliff",
          "type": "uint16"
        }
      ],
      "name": "GrantAdded",
      "type": "event"
    },
    {
      "anonymous": false,
      "inputs": [
        {
          "indexed": false,
          "name": "recipient",
          "type": "address"
        },
        {
          "indexed": false,
          "name": "amountVested",
          "type": "uint128"
        },
        {
          "indexed": false,
          "name": "amountNotVested",
          "type": "uint128"
        }
      ],
      "name": "GrantRemoved",
      "type": "event"
    },
    {
      "anonymous": false,
      "inputs": [
        {
          "indexed": false,
          "name": "recipient",
          "type": "address"
        },
        {
          "indexed": false,
          "name": "amountClaimed",
          "type": "uint128"
        }
      ],
      "name": "GrantTokensClaimed",
      "type": "event"
    },
    {
      "constant": false,
      "inputs": [
        {
          "name": "_recipient",
          "type": "address"
        },
        {
          "name": "_startTime",
          "type": "uint256"
        },
        {
          "name": "_amount",
          "type": "uint128"
        },
        {
          "name": "_vestingDuration",
          "type": "uint16"
        },
        {
          "name": "_vestingCliff",
          "type": "uint16"
        }
      ],
      "name": "addTokenGrant",
      "outputs": [],
      "payable": false,
      "stateMutability": "nonpayable",
      "type": "function"
    },
    {
      "constant": false,
      "inputs": [
        {
          "name": "_recipient",
          "type": "address"
        }
      ],
      "name": "removeTokenGrant",
      "outputs": [],
      "payable": false,
      "stateMutability": "nonpayable",
      "type": "function"
    },
    {
      "constant": false,
      "inputs": [],
      "name": "claimVestedTokens",
      "outputs": [],
      "payable": false,
      "stateMutability": "nonpayable",
      "type": "function"
    },
    {
      "constant": true,
      "inputs": [
        {
          "name": "_recipient",
          "type": "address"
        }
      ],
      "name": "calculateGrantClaim",
      "outputs": [
        {
          "name": "",
          "type": "uint16"
        },
        {
          "name": "",
          "type": "uint128"
        }
      ],
      "payable": false,
      "stateMutability": "view",
      "type": "function"
    }
  ],
  "bytecode": "0x608060405234801561001057600080fd5b50604051604080610ccf83398101604052805160209091015181600160a060020a038116151561003f57600080fd5b81600160a060020a038116151561005557600080fd5b505060008054600160a060020a03938416600160a060020a03199182161790915560018054929093169116179055610c3d806100926000396000f3006080604052600436106100825763ffffffff7c010000000000000000000000000000000000000000000000000000000060003504166308ec616481146100875780633023641d146100b8578063b81a4d8f146100db578063da09118e1461013e578063e74f3fbb1461017b578063fc0c546a14610190578063fd75b8d4146101a5575b600080fd5b34801561009357600080fd5b5061009c6101ec565b60408051600160a060020a039092168252519081900360200190f35b3480156100c457600080fd5b506100d9600160a060020a03600435166101fb565b005b3480156100e757600080fd5b506100fc600160a060020a0360043516610476565b604080519687526001608060020a03958616602088015261ffff94851687820152928416606087015292166080850152911660a0830152519081900360c00190f35b34801561014a57600080fd5b506100d9600160a060020a03600435166024356001608060020a036044351661ffff606435811690608435166104f3565b34801561018757600080fd5b506100d961082b565b34801561019c57600080fd5b5061009c610a0a565b3480156101b157600080fd5b506101c6600160a060020a0360043516610a19565b6040805161ffff90931683526001608060020a0390911660208301528051918290030190f35b600154600160a060020a031681565b600154600090819081908190600160a060020a0316331461021b57600080fd5b600160a060020a0385166000908152600260205260409020935061023e85610a19565b6001860154600287015492955090935061027791610268916001608060020a039081169116610b8e565b836001608060020a0316610b8e565b60008054604080517fa9059cbb000000000000000000000000000000000000000000000000000000008152600160a060020a038a811660048301526001608060020a0388166024830152915194955091169263a9059cbb92604480840193602093929083900390910190829087803b1580156102f257600080fd5b505af1158015610306573d6000803e3d6000fd5b505050506040513d602081101561031c57600080fd5b5051151561032957600080fd5b60008054600154604080517fa9059cbb000000000000000000000000000000000000000000000000000000008152600160a060020a0392831660048201526001608060020a03861660248201529051919092169263a9059cbb92604480820193602093909283900390910190829087803b1580156103a657600080fd5b505af11580156103ba573d6000803e3d6000fd5b505050506040513d60208110156103d057600080fd5b505115156103dd57600080fd5b6000845560018401805475ffffffffffffffffffffffffffffffffffffffffffff191690556002840180546fffffffffffffffffffffffffffffffff1916905560408051600160a060020a03871681526001608060020a03848116602083015283168183015290517f340f6477ea48f04683f1f869a730e23ed8123e47f682b448d93174501e7aefdb9181900360600190a15050505050565b60026020819052600091825260409091208054600182015491909201546001608060020a038083169261ffff70010000000000000000000000000000000082048116937201000000000000000000000000000000000000830482169374010000000000000000000000000000000000000000909304909116911686565b60006104fd610bdc565b600154600160a060020a0316331461051457600080fd5b600160a060020a03871660009081526002602052604090205487901561053957600080fd5b600061ffff85161161054a57600080fd5b61ffff8085169086161161055d57600080fd5b8461ffff16866001608060020a031681151561057557fe5b046001608060020a0316925060008311151561059057600080fd5b60008054600154604080517f23b872dd000000000000000000000000000000000000000000000000000000008152600160a060020a0392831660048201523060248201526001608060020a038b166044820152905191909216926323b872dd92606480820193602093909283900390910190829087803b15801561061357600080fd5b505af1158015610627573d6000803e3d6000fd5b505050506040513d602081101561063d57600080fd5b50506040805160c081019091528088156106575788610659565b425b8152602001876001608060020a031681526020018661ffff1681526020018561ffff168152602001600061ffff16815260200160006001608060020a0316815250915081600260008a600160a060020a0316600160a060020a031681526020019081526020016000206000820151816000015560208201518160010160006101000a8154816001608060020a0302191690836001608060020a0316021790555060408201518160010160106101000a81548161ffff021916908361ffff16021790555060608201518160010160126101000a81548161ffff021916908361ffff16021790555060808201518160010160146101000a81548161ffff021916908361ffff16021790555060a08201518160020160006101000a8154816001608060020a0302191690836001608060020a031602179055509050507f4995f92ede8051f62ebd282d2097795d0569de63589fb49da0064f43cb47c8af8883600001518888886040518086600160a060020a0316600160a060020a03168152602001858152602001846001608060020a03166001608060020a031681526020018361ffff1661ffff1681526020018261ffff1661ffff1681526020019550505050505060405180910390a15050505050505050565b600080600061083933610a19565b909350915060006001608060020a0383161161085457600080fd5b5033600090815260026020526040902060018101546108939061ffff740100000000000000000000000000000000000000009091048116908516610ba4565b60018201805461ffff92909216740100000000000000000000000000000000000000000275ffff00000000000000000000000000000000000000001990921691909117905560028101546108f4906001608060020a03908116908416610ba4565b6002820180546fffffffffffffffffffffffffffffffff19166001608060020a0392831617905560008054604080517fa9059cbb000000000000000000000000000000000000000000000000000000008152336004820152938616602485015251600160a060020a039091169263a9059cbb9260448083019360209390929083900390910190829087803b15801561098b57600080fd5b505af115801561099f573d6000803e3d6000fd5b505050506040513d60208110156109b557600080fd5b505115156109c257600080fd5b604080513381526001608060020a038416602082015281517f2962855c62781b7b45ee6a244c72c6b1eaa1b883b9bbbe60fcff273aa480c8d2929181900390910190a1505050565b600054600160a060020a031681565b600160a060020a03811660009081526002602052604081208054829190829081908190819081908190421015610a555760009850889750610b82565b610a63428860000154610b8e565b9550622819a086600189015491900495507201000000000000000000000000000000000000900461ffff16851015610aa15760009850889750610b82565b6001870154700100000000000000000000000000000000900461ffff168510610b00576002870154600188015461ffff7001000000000000000000000000000000008204169a506001608060020a039182169116039750879350610b82565b6001870154610b2c90869074010000000000000000000000000000000000000000900461ffff16610b8e565b600188015490935061ffff700100000000000000000000000000000000820416906001608060020a0316811515610b5f57fe5b046001608060020a03169150610b798361ffff1683610bb4565b90508281985098505b50505050505050915091565b80820382811115610b9e57600080fd5b92915050565b80820182811015610b9e57600080fd5b6000811580610bd1575050808202828282811515610bce57fe5b04145b1515610b9e57600080fd5b6040805160c081018252600080825260208201819052918101829052606081018290526080810182905260a0810191909152905600a165627a7a7230582081cd15f5271c88ce048496203fa5149d65d5aa66f368ab519b713167a156919f0029",
  "source": "/*\n  This file is part of The Colony Network.\n\n  The Colony Network is free software: you can redistribute it and/or modify\n  it under the terms of the GNU General Public License as published by\n  the Free Software Foundation, either version 3 of the License, or\n  (at your option) any later version.\n\n  The Colony Network is distributed in the hope that it will be useful,\n  but WITHOUT ANY WARRANTY; without even the implied warranty of\n  MERCHANTABILITY or FITNESS FOR A PARTICULAR PURPOSE.  See the\n  GNU General Public License for more details.\n\n  You should have received a copy of the GNU General Public License\n  along with The Colony Network. If not, see <http://www.gnu.org/licenses/>.\n*/\n\npragma solidity ^0.4.23;\npragma experimental \"v0.5.0\";\n\nimport \"./Token.sol\";\nimport \"../lib/dappsys/math.sol\";\nimport \"../lib/dappsys/erc20.sol\";\n\n\ncontract Vesting is DSMath {\n  Token public token;\n  address public colonyMultiSig;\n\n  uint constant internal SECONDS_PER_MONTH = 2628000;\n\n  event GrantAdded(address recipient, uint256 startTime, uint128 amount, uint16 vestingDuration, uint16 vestingCliff);\n  event GrantRemoved(address recipient, uint128 amountVested, uint128 amountNotVested);\n  event GrantTokensClaimed(address recipient, uint128 amountClaimed);\n\n  struct Grant {\n    uint startTime;\n    uint128 amount;\n    uint16 vestingDuration;\n    uint16 vestingCliff;\n    uint16 monthsClaimed;\n    uint128 totalClaimed;\n  }\n  mapping (address => Grant) public tokenGrants;\n\n  modifier onlyColonyMultiSig {\n    require(msg.sender == colonyMultiSig);\n    _;\n  }\n\n  modifier nonZeroAddress(address x) {\n    require(x != 0);\n    _;\n  }\n\n  modifier noGrantExistsForUser(address _user) {\n    require(tokenGrants[_user].startTime == 0);\n    _;\n  }\n\n  constructor(address _token, address _colonyMultiSig) public\n  nonZeroAddress(_token)\n  nonZeroAddress(_colonyMultiSig)\n  {\n    token = Token(_token);\n    colonyMultiSig = _colonyMultiSig;\n  }\n\n  /// @notice Add a new token grant for user `_recipient`. Only one grant per user is allowed\n  /// The amount of CLNY tokens here need to be preapproved for transfer by this `Vesting` contract before this call\n  /// Secured to the Colony MultiSig only\n  /// @param _recipient Address of the token grant recipient entitled to claim the grant funds\n  /// @param _startTime Grant start time as seconds since unix epoch\n  /// Allows backdating grants by passing time in the past. If `0` is passed here current blocktime is used. \n  /// @param _amount Total number of tokens in grant\n  /// @param _vestingDuration Number of months of the grant's duration\n  /// @param _vestingCliff Number of months of the grant's vesting cliff\n  function addTokenGrant(address _recipient, uint256 _startTime, uint128 _amount, uint16 _vestingDuration, uint16 _vestingCliff) public \n  onlyColonyMultiSig\n  noGrantExistsForUser(_recipient)\n  {\n    require(_vestingCliff > 0);\n    require(_vestingDuration > _vestingCliff);\n    uint amountVestedPerMonth = _amount / _vestingDuration;\n    require(amountVestedPerMonth > 0);\n\n    // Transfer the grant tokens under the control of the vesting contract\n    token.transferFrom(colonyMultiSig, address(this), _amount);\n\n    Grant memory grant = Grant({\n      startTime: _startTime == 0 ? now : _startTime,\n      amount: _amount,\n      vestingDuration: _vestingDuration,\n      vestingCliff: _vestingCliff,\n      monthsClaimed: 0,\n      totalClaimed: 0\n    });\n\n    tokenGrants[_recipient] = grant;\n    emit GrantAdded(_recipient, grant.startTime, _amount, _vestingDuration, _vestingCliff);\n  }\n\n  /// @notice Terminate token grant transferring all vested tokens to the `_recipient`\n  /// and returning all non-vested tokens to the Colony MultiSig\n  /// Secured to the Colony MultiSig only\n  /// @param _recipient Address of the token grant recipient\n  function removeTokenGrant(address _recipient) public \n  onlyColonyMultiSig\n  {\n    Grant storage tokenGrant = tokenGrants[_recipient];\n    uint16 monthsVested;\n    uint128 amountVested;\n    (monthsVested, amountVested) = calculateGrantClaim(_recipient);\n    uint128 amountNotVested = uint128(sub(sub(tokenGrant.amount, tokenGrant.totalClaimed), amountVested));\n\n    require(token.transfer(_recipient, amountVested));\n    require(token.transfer(colonyMultiSig, amountNotVested));\n\n    tokenGrant.startTime = 0;\n    tokenGrant.amount = 0;\n    tokenGrant.vestingDuration = 0;\n    tokenGrant.vestingCliff = 0;\n    tokenGrant.monthsClaimed = 0;\n    tokenGrant.totalClaimed = 0;\n\n    emit GrantRemoved(_recipient, amountVested, amountNotVested);\n  }\n\n  /// @notice Allows a grant recipient to claim their vested tokens. Errors if no tokens have vested\n  /// It is advised recipients check they are entitled to claim via `calculateGrantClaim` before calling this\n  function claimVestedTokens() public {\n    uint16 monthsVested;\n    uint128 amountVested;\n    (monthsVested, amountVested) = calculateGrantClaim(msg.sender);\n    require(amountVested > 0);\n\n    Grant storage tokenGrant = tokenGrants[msg.sender];\n    tokenGrant.monthsClaimed = uint16(add(tokenGrant.monthsClaimed, monthsVested));\n    tokenGrant.totalClaimed = uint128(add(tokenGrant.totalClaimed, amountVested));\n    \n    require(token.transfer(msg.sender, amountVested));\n    emit GrantTokensClaimed(msg.sender, amountVested);\n  }\n\n  /// @notice Calculate the vested and unclaimed months and tokens available for `_recepient` to claim\n  /// Due to rounding errors once grant duration is reached, returns the entire left grant amount\n  /// Returns (0, 0) if cliff has not been reached\n  function calculateGrantClaim(address _recipient) public view returns (uint16, uint128) {\n    Grant storage tokenGrant = tokenGrants[_recipient];\n\n    // For grants created with a future start date, that hasn't been reached, return 0, 0\n    if (now < tokenGrant.startTime) {\n      return (0, 0);\n    }\n\n    // Check cliff was reached\n    uint elapsedTime = sub(now, tokenGrant.startTime);\n    uint elapsedMonths = elapsedTime / SECONDS_PER_MONTH;\n    \n    if (elapsedMonths < tokenGrant.vestingCliff) {\n      return (0, 0);\n    }\n\n    // If over vesting duration, all tokens vested\n    if (elapsedMonths >= tokenGrant.vestingDuration) {\n      uint128 remainingGrant = tokenGrant.amount - tokenGrant.totalClaimed;\n      return (tokenGrant.vestingDuration, remainingGrant);\n    } else {\n      uint16 monthsVested = uint16(sub(elapsedMonths, tokenGrant.monthsClaimed));\n      uint amountVestedPerMonth = tokenGrant.amount / tokenGrant.vestingDuration;\n      uint128 amountVested = uint128(mul(monthsVested, amountVestedPerMonth));\n      return (monthsVested, amountVested);\n    }\n  }\n}\n",
  "sourcePath": "/Users/Elena/colonyToken/contracts/Vesting.sol",
  "compiler": {
    "name": "solc",
    "version": "0.4.25+commit.59dbf8f1.Emscripten.clang"
  },
  "schemaVersion": "3.0.0-beta.1",
  "updatedAt": "2018-12-18T09:42:41.908Z"
}